:020000040800F2
:1000000000500020BD0600087106000877060008B1
:100010007D0600088306000889060008000000002D
:100020000000000000000000000000001127000890
:100030008F06000800000000F12800083929000898
:100040000507000805070008050700080507000860
:100050000507000805070008050700080507000850
:100060000507000805070008050700080507000840
:100070000507000805070008050700080507000830
:100080000507000805070008050700080507000820
:100090000507000805070008050700080507000810
:1000A000050700089D060008050700080507000869
:1000B00005070008050700080507000805070008F0
:1000C00005070008050700080507000805070008E0
:1000D00005070008050700080507000805070008D0
:1000E00005070008050700080507000800000000D4
:1000F0000000000000000000000000000000000000
:0C01000000000000000000005FF808F1A3
:1001100010B5054C237833B9044B13B10448AFF341
:1001200000800123237010BD7C000020000000002F
:10013000482F000808B5034B1BB103490348AFF330
:10014000008008BD0000000080000020482F00084B
:1001500080B485B000AFF860B9607A60FB68064A89
:100160001A60BB68054A1A607B6880221A6000BF6B
:100170001437BD4680BC7047980000204C01002019
:1001800080B584B000AF03460A46FB711346BB71CD
:10019000BB79002B02D10023FB7301E00123FB7329
:1001A000FB79013B072B4ED801A252F823F000BF88
:1001B000D1010008DF010008ED010008FB01000883
:1001C0000902000819020008290200083902000883
:1001D000FB7B1A4640211E4800F02CFD34E0FB7BDF
:1001E0001A4680211A4800F025FD2DE0FB7B1A46B7
:1001F0001021174800F01EFD26E0FB7B1A4608215F
:10020000134800F017FD1FE0FB7B1A464FF4004136
:10021000104800F00FFD17E0FB7B1A464FF4807189
:100220000B4800F007FD0FE0FB7B1A464FF400710E
:10023000074800F0FFFC07E0FB7B1A46202104483A
:1002400000F0F8FC00E000BF00BF1037BD4680BDE5
:10025000000C01400008014080B584B000AF0346A7
:10026000FB710023FB7313E0FB7BC3F10803D8B2DF
:10027000FA79FB7BC3F1070342FA03F3DBB203F025
:100280000103DBB21946FFF77BFFFB7B0133FB73F6
:10029000FB7B072BE8D900BF00BF1037BD4680BDF0
:1002A00080B582B000AF7860044B1B781846FFF72A
:1002B000D3FF212001F024FEF6E700BF5003002009
:1002C00080B584B000AF78600023FB73FB7B084AE5
:1002D000D25C084B1A70FB7B0133FB73FB7B072B53
:1002E00001D10023FB73C82001F00AFEEEE700BF36
:1002F0000000002050030020B0B58AB002AF00F02B
:1003000003FA00F035F800F06FF8144B3C1D1D4661
:100310000FCD0FC495E8070084E807003B1D0021BE
:10032000184601F03DFB03460D4A1360002301937C
:1003300002230093002380220A490B4801F09BFC12
:1003400000230193022300930023802205490748DC
:1003500001F091FC01F01DFBFEE700BF702F0008CB
:100360004C0300206C2F0008A1020008C102000805
:1003700080B590B000AF07F118032822002118467D
:1003800002F01CFD3B1D00221A605A609A60DA6080
:100390001A610223BB610123BB621023FB620023AD
:1003A0007B6307F11803184600F05CFC0346002B42
:1003B00001D000F0ADF80F237B600023BB60002369
:1003C000FB6000233B6100237B613B1D002118463D
:1003D00000F0CAFE0346002B01D000F099F800BFE0
:1003E0004037BD4680BD000080B588B000AF07F142
:1003F000100300221A605A609A60DA60334B9B69DE
:10040000324A43F010039361304B9B6903F01003B1
:10041000FB60FB682D4B9B692C4A43F004039361FE
:100420002A4B9B6903F00403BB60BB68274B9B69A5
:10043000264A43F008039361244B9B6903F00803A9
:100440007B607B6800224FF40051214800F0F2FBF2
:1004500000224FF400411F4800F0ECFB00224FF453
:100460007E711D4800F0E6FB4FF400533B61012311
:100470007B610023BB610223FB6107F11003194676
:10048000134800F053FA4FF400433B6101237B61B2
:100490000023BB610223FB6107F1100319460D48DD
:1004A00000F044FA4FF47E733B6101237B6100232B
:1004B000BB610223FB6107F110031946064800F0F7
:1004C00035FA00BF2037BD4680BD00BF0010024096
:1004D0000010014000080140000C014080B582B0CE
:1004E00000AF7860012001F0A7FAFBE780B582B089
:1004F00000AF78607B681B68044A934201D100F02A
:1005000019F900BF0837BD4680BD00BF002C01406F
:1005100080B400AF72B600BFFEE7000080B584B0C3
:1005200000AF184B9B69174A43F001039361154BC9
:100530009B6903F00103BB60BB68124BDB69114A86
:1005400043F08053D3610F4BDB6903F080537B6032
:100550007B6800220F216FF0010000F0BCF90A4B0C
:100560005B68FB60FB6823F0E063FB60FB6843F0C3
:100570000073FB60044AFB68536000BF1037BD4640
:1005800080BD00BF001002400000014080B58CB06B
:1005900000AF78600023BB6200237B62002387F8F2
:1005A0002F302E4B9B692D4A43F4006393612B4BF4
:1005B0009B6903F40063BB60BB6807F10C0207F1A1
:1005C00010031146184600F035FF00F01FFFB86217
:1005D000BB6A234AA2FB03239B0C013B7B62214B9A
:1005E000214A1A601F4B40F2E732DA601D4A7B6AEB
:1005F00053601C4B00221A611A4B00229A60194B5F
:1006000000229A61174800F063FF034687F82F30F5
:1006100097F82F30002B1BD1124800F0B1FF034692
:1006200087F82F3097F82F30002B11D1192000F0C8
:100630006EF97B680F2B08D800227968192000F02A
:100640004AF90A4A7B68136002E0012387F82F30D9
:1006500097F82F3018463037BD4680BD0010024055
:1006600083DE1B4354030020002C01400C000020BB
:1006700080B400AFFEE780B400AFFEE780B400AF07
:10068000FEE780B400AFFEE780B400AFFEE780B4C1
:1006900000AF00BFBD4680BC7047000080B500AF12
:1006A000024800F0BFFF00BF80BD00BF5403002020
:1006B00080B400AF00BFBD4680BC70470C480D49F8
:1006C0000D4A002302E0D458C4500433C4188C42AD
:1006D000F9D30A4A0A4C002301E013600432A24213
:1006E000FBD3FFF7E5FF02F043FBFFF705FE704782
:1006F000000000207C000020243000087C00002046
:10070000F4100020FEE7000080B500AF084B1B6826
:10071000074A43F010031360032000F0D1F80F20C4
:10072000FFF734FFFFF7FAFE0023184680BD00BF35
:100730000020024080B400AF054B1B781A46054BE1
:100740001B681344034A136000BFBD4680BC70475A
:10075000100000209C03002080B400AF024B1B68F7
:100760001846BD4680BC70479C03002080B485B00D
:1007700000AF78607B6803F00703FB600C4BDB681D
:10078000BB60BA684FF6FF031340BB60FB681A02F8
:10079000BB68134343F0BF6343F40033BB60044AB8
:1007A000BB68D36000BF1437BD4680BC704700BF34
:1007B00000ED00E080B400AF044BDB681B0A03F0DF
:1007C00007031846BD4680BC704700BF00ED00E03F
:1007D00080B483B000AF0346FB7197F90730002B5C
:1007E0000BDBFB7903F01F02064997F907305B0921
:1007F000012000FA02F241F8232000BF0C37BD4669
:1008000080BC704700E100E080B483B000AF0346D5
:100810003960FB7197F90730002B0ADB3B68DAB2CD
:100820000C4997F907301201D2B20B4483F8002328
:100830000AE03B68DAB20849FB7903F00F03043B96
:100840001201D2B20B441A7600BF0C37BD4680BCF1
:10085000704700BF00E100E000ED00E080B489B027
:1008600000AFF860B9607A60FB6803F00703FB61D2
:10087000FB69C3F10703042B28BF0423BB61FB6999
:100880000433062B02D9FB69033B00E000237B61A4
:100890004FF0FF32BB6902FA03F3DA43BB681A4038
:1008A0007B699A404FF0FF317B6901FA03F3D9432A
:1008B0007B680B40134318462437BD4680BC704705
:1008C00080B582B000AF78607868FFF74FFF00BF57
:1008D0000837BD4680BD80B586B000AF0346B9601D
:1008E0007A60FB7300237B61FFF764FF78617A68AD
:1008F000B9687869FFF7B2FF024697F90F301146E1
:100900001846FFF781FF00BF1837BD4680BD80B590
:1009100082B000AF0346FB7197F907301846FFF726
:1009200057FF00BF0837BD4680BD000080B48BB0C4
:1009300000AF7860396000237B6200233B6269E18D
:1009400001227B6A02FA03F3FB613B681B68FA69C8
:100950001340BB61BA69FB699A4240F058813B6819
:100960005B689A4A93425ED0984A934275D8984AF7
:10097000934258D0964A93426FD8964A934252D0A7
:10098000944A934269D8944A93424CD0924A9342F3
:1009900063D8924A934246D0904A93425DD8122B34
:1009A0002AD8122B59D801A252F823F0270A00089E
:1009B000010A0008130A0008550A00085B0A00082B
:1009C0005B0A00085B0A00085B0A00085B0A000873
:1009D0005B0A00085B0A00085B0A00085B0A000863
:1009E0005B0A00085B0A00085B0A00085B0A000853
:1009F000090A00081D0A0008794A934213D02CE026
:100A00003B68DB683B6229E03B68DB6804333B62A0
:100A100024E03B68DB6808333B621FE03B68DB682F
:100A20000C333B621AE03B689B68002B02D1042325
:100A30003B6213E03B689B68012B05D108233B62B6
:100A40007B68FA691A6109E008233B627B68FA69EE
:100A50005A6103E000233B6200E000BFBB69FF2B4B
:100A600001D87B6801E07B6804337B61BB69FF2BA5
:100A700002D87B6A9B0002E07B6A083B9B003B61DB
:100A80007B691A680F213B6901FA03F3DB431A40C3
:100A9000396A3B6901FA03F31A437B691A603B68C0
:100AA0005B6803F08053002B00F0B1804D4B9B69D5
:100AB0004C4A43F0010393614A4B9B6903F00103E5
:100AC000BB60BB68484A7B6A9B08023352F82330FC
:100AD000FB607B6A03F003039B000F2202FA03F31F
:100AE000DB43FA681340FB607B68404A934213D0B3
:100AF0007B683F4A93420DD07B683E4A934207D0C1
:100B00007B683D4A934201D1032306E0042304E0BD
:100B1000022302E0012300E000237A6A02F00302CC
:100B200092009340FA681343FB602F497B6A9B084D
:100B30000233FA6841F823203B685B6803F4803392
:100B4000002B06D02D4B1A682C49BB6913430B6050
:100B500006E02A4B1A68BB69DB43284913400B6047
:100B60003B685B6803F40033002B06D0234B5A68C4
:100B70002249BB6913434B6006E0204B5A68BB69AE
:100B8000DB431E4913404B603B685B6803F48013F2
:100B9000002B06D0194B9A681849BB6913438B6028
:100BA00006E0164B9A68BB69DB43144913408B601F
:100BB0003B685B6803F40013002B21D00F4BDA680D
:100BC0000E49BB691343CB6021E000BF0000321027
:100BD000000031100000221000002110000012104F
:100BE0000000111000100240000001400008014008
:100BF000000C0140001001400014014000040140BD
:100C00000B4BDA68BB69DB4309491340CB607B6A55
:100C100001337B623B681A687B6A22FA03F3002B7C
:100C20007FF48EAE00BF00BF2C37BD4680BC70473E
:100C30000004014080B483B000AF78600B467B8035
:100C400013467B707B78002B03D07A887B681A610F
:100C500003E07B881A047B681A6100BF0C37BD462D
:100C600080BC704780B586B000AF78607B68002B91
:100C700001D1012372E27B681B6803F00103002BA2
:100C800000F08780924B5B6803F00C03042B0CD0C0
:100C90008F4B5B6803F00C03082B12D18C4B5B6805
:100CA00003F48033B3F5803F0BD1894B1B6803F409
:100CB0000033002B6CD07B685B68002B68D101236C
:100CC0004CE27B685B68B3F5803F06D1804B1B68C4
:100CD0007F4A43F4803313602EE07B685B68002B0F
:100CE0000CD17B4B1B687A4A23F480331360784B1A
:100CF0001B68774A23F4802313601DE07B685B68E0
:100D0000B3F5A02F0CD1724B1B68714A43F48023BA
:100D100013606F4B1B686E4A43F4803313600BE023
:100D20006B4B1B686A4A23F480331360684B1B6863
:100D3000674A23F4802313607B685B68002B13D021
:100D4000FFF70AFD386108E0FFF706FD02463B6940
:100D5000D31A642B01D9032300E25D4B1B6803F413
:100D60000033002BF0D014E0FFF7F6FC386108E008
:100D7000FFF7F2FC02463B69D31A642B01D9032327
:100D8000ECE1534B1B6803F40033002BF0D100E07F
:100D900000BF7B681B6803F00203002B63D04C4B41
:100DA0005B6803F00C03002B0BD0494B5B6803F02E
:100DB0000C03082B1CD1464B5B6803F48033002BDB
:100DC00016D1434B1B6803F00203002B05D07B6850
:100DD0001B69012B01D00123C0E13D4B1B6823F0AF
:100DE000F8027B685B69DB00394913430B603AE02A
:100DF0007B681B69002B20D0364B01221A60FFF75D
:100E0000ABFC386108E0FFF7A7FC02463B69D31A48
:100E1000022B01D90323A1E12D4B1B6803F0020330
:100E2000002BF0D02A4B1B6823F0F8027B685B692B
:100E3000DB00274913430B6015E0264B00221A60A4
:100E4000FFF78AFC386108E0FFF786FC02463B6941
:100E5000D31A022B01D9032380E11D4B1B6803F039
:100E60000203002BF0D17B681B6803F00803002B02
:100E70003AD07B689B69002B19D0174B01221A606E
:100E8000FFF76AFC386108E0FFF766FC02463B6941
:100E9000D31A022B01D9032360E10D4B5B6A03F0E7
:100EA0000203002BF0D0012000F0F4FA1CE00A4B02
:100EB00000221A60FFF750FC38610FE0FFF74CFC8E
:100EC00002463B69D31A022B08D9032346E100BF2F
:100ED000001002400000424280044242924B5B6A92
:100EE00003F00203002BE9D17B681B6803F00403C5
:100EF000002B00F0A6800023FB758B4BDB6903F011
:100F00008053002B0DD1884BDB69874A43F0805317
:100F1000D361854BDB6903F08053BB60BB68012361
:100F2000FB75824B1B6803F48073002B18D17F4B39
:100F30001B687E4A43F480731360FFF70DFC386131
:100F400008E0FFF709FC02463B69D31A642B01D97C
:100F5000032303E1754B1B6803F48073002BF0D06F
:100F60007B68DB68012B06D16F4B1B6A6E4A43F02E
:100F7000010313622DE07B68DB68002B0CD16A4B08
:100F80001B6A694A23F001031362674B1B6A664AB6
:100F900023F0040313621CE07B68DB68052B0CD193
:100FA000614B1B6A604A43F0040313625E4B1B6A89
:100FB0005D4A43F0010313620BE05B4B1B6A5A4A24
:100FC00023F001031362584B1B6A574A23F00403B2
:100FD00013627B68DB68002B15D0FFF7BDFB38611F
:100FE0000AE0FFF7B9FB02463B69D31A41F28832A7
:100FF000934201D90323B1E04B4B1B6A03F0020378
:10100000002BEED014E0FFF7A7FB38610AE0FFF7F2
:10101000A3FB02463B69D31A41F28832934201D9BD
:1010200003239BE0404B1B6A03F00203002BEED12D
:10103000FB7D012B05D13C4BDB693B4A23F0805300
:10104000D3617B68DB69002B00F08780364B5B68DF
:1010500003F00C03082B61D07B68DB69022B46D1BF
:10106000334B00221A60FFF777FB386108E0FFF787
:1010700073FB02463B69D31A022B01D903236DE0AF
:10108000294B1B6803F00073002BF0D17B681B6AAF
:10109000B3F5803F08D1244B5B6823F400327B68B2
:1010A0009B68214913434B601F4B5B6823F4741208
:1010B0007B68196A7B685B6A0B431B4913434B606F
:1010C0001B4B01221A60FFF747FB386108E0FFF76E
:1010D00043FB02463B69D31A022B01D903233DE0AF
:1010E000114B1B6803F00073002BF0D035E0104B60
:1010F00000221A60FFF730FB386108E0FFF72CFB95
:1011000002463B69D31A022B01D9032326E0064B82
:101110001B6803F00073002BF0D11EE07B68DB69D5
:10112000012B07D1012319E000100240007000409C
:10113000600042420B4B5B68FB60FB6803F480324B
:101140007B681B6A9A4206D1FB6803F470127B68C5
:101150005B6A9A4201D0012300E000231846183749
:10116000BD4680BD0010024080B584B000AF7860FD
:1011700039607B68002B01D10123D0E06A4B1B68EA
:1011800003F007033A689A4210D9674B1B6823F0B3
:10119000070265493B6813430B60634B1B6803F010
:1011A00007033A689A4201D00123B8E07B681B68C4
:1011B00003F00203002B20D07B681B6803F00403BC
:1011C000002B05D0594B5B68584A43F4E0635360E9
:1011D0007B681B6803F00803002B05D0534B5B684A
:1011E000524A43F460535360504B5B6823F0F00263
:1011F0007B689B684D4913434B607B681B6803F019
:101200000103002B40D07B685B68012B07D1474B63
:101210001B6803F40033002B15D101237FE07B68AA
:101220005B68022B07D1414B1B6803F00073002B56
:1012300009D1012373E03D4B1B6803F00203002B2F
:1012400001D101236BE0394B5B6823F003027B681B
:101250005B68364913434B60FFF77EFAF8600AE09B
:10126000FFF77AFA0246FB68D31A41F288329342BA
:1012700001D9032353E02D4B5B6803F00C027B681C
:101280005B689B009A42EBD1274B1B6803F0070376
:101290003A689A4210D2244B1B6823F00702224975
:1012A0003B6813430B60204B1B6803F007033A684D
:1012B0009A4201D0012332E07B681B6803F00403EB
:1012C000002B08D0194B5B6823F4E0627B68DB6875
:1012D000164913434B607B681B6803F00803002B1F
:1012E00009D0124B5B6823F460527B681B69DB00FA
:1012F0000E4913434B6000F021F802460B4B5B682C
:101300001B0903F00F030A49CB5C22FA03F3094AD5
:101310001360094B1B681846FFF738F9002318467D
:101320001037BD4680BD00BF0020024000100240C3
:10133000A42F0008080000200C00002090B48AB000
:1013400000AF294B3C1D0FCB84E80F0040F2012376
:101350003B800023FB610023BB6100237B620023F1
:101360007B6100233B62214B5B68FB61FB6903F0FF
:101370000C03042B02D0082B03D02BE01C4B3B6248
:101380002BE0FB699B0C03F00F0328333B4413F85D
:10139000243C7B61FB6903F48033002B12D0134B98
:1013A0005B685B0C03F0010328333B4413F8283CD3
:1013B000BB617B690E4A03FB02F2BB69B2FBF3F32C
:1013C0007B6204E07B690B4A02FB03F37B627B6A6E
:1013D0003B6202E0064B3B6200BF3B6A184628377F
:1013E000BD4690BC704700BF8C2F00080010024023
:1013F00000127A0000093D0080B400AF024B1B6868
:101400001846BD4680BC70470800002080B500AF7C
:10141000FFF7F2FF0246054B5B68DB0A03F00703A8
:101420000349CB5C22FA03F3184680BD001002404A
:10143000B42F000880B483B000AF786039607B6857
:101440000F221A60114B5B6803F003027B685A603D
:101450000E4B5B6803F0F0027B689A600B4B5B6895
:1014600003F4E0627B68DA60084B5B68DB0803F436
:10147000E0627B681A61064B1B6803F007023B6859
:101480001A6000BF0C37BD4680BC70470010024098
:101490000020024080B485B000AF78600A4B1B6822
:1014A0000A4AA2FB03235B0A7A6802FB03F3FB6090
:1014B00000BFFB685A1EFA60002BF9D100BF00BFC5
:1014C0001437BD4680BC704708000020D34D621021
:1014D00080B582B000AF78607B68002B01D101231A
:1014E00041E07B6893F83D30DBB2002B06D17B688E
:1014F000002283F83C20786800F039F87B680222EB
:1015000083F83D207B681A687B68043319461046CF
:1015100000F0B4F97B68012283F846207B68012241
:1015200083F83E207B68012283F83F207B680122FC
:1015300083F840207B68012283F841207B680122E8
:1015400083F842207B68012283F843207B680122D4
:1015500083F844207B68012283F845207B680122C0
:1015600083F83D20002318460837BD4680BD80B46F
:1015700083B000AF786000BF0C37BD4680BC7047B9
:1015800080B485B000AF78607B6893F83D30DBB203
:10159000012B01D001233AE07B68022283F83D2031
:1015A0007B681B68DA687B681B6842F00102DA60BE
:1015B0007B681B68184A93420ED07B681B68B3F1A6
:1015C000804F09D07B681B68144A934204D07B6823
:1015D0001B68134A934211D17B681B689B6803F018
:1015E0000703FB60FB68062B10D07B681B681A683A
:1015F0007B681B6842F001021A6007E07B681B6889
:101600001A687B681B6842F001021A6000231846C2
:101610001437BD4680BC7047002C014000040040D8
:101620000008004080B582B000AF78607B681B681E
:101630001B6903F00203022B22D17B681B68DB6865
:1016400003F00203022B1BD17B681B686FF00202C0
:101650001A617B6801221A777B681B689B6903F01B
:101660000303002B03D0786800F0EDF805E07868FC
:1016700000F0E0F8786800F0EFF87B6800221A7755
:101680007B681B681B6903F00403042B22D17B6871
:101690001B68DB6803F00403042B1BD17B681B6809
:1016A0006FF004021A617B6802221A777B681B685C
:1016B0009B6903F44073002B03D0786800F0C3F8F3
:1016C00005E0786800F0B6F8786800F0C5F87B6847
:1016D00000221A777B681B681B6903F00803082B3C
:1016E00022D17B681B68DB6803F00803082B1BD141
:1016F0007B681B686FF008021A617B6804221A7706
:101700007B681B68DB6903F00303002B03D0786858
:1017100000F099F805E0786800F08CF8786800F03F
:101720009BF87B6800221A777B681B681B6903F0B3
:101730001003102B22D17B681B68DB6803F01003B9
:10174000102B1BD17B681B686FF010021A617B683D
:1017500008221A777B681B68DB6903F44073002B4F
:1017600003D0786800F06FF805E0786800F062F860
:10177000786800F071F87B6800221A777B681B6834
:101780001B6903F00103012B0ED17B681B68DB682A
:1017900003F00103012B07D17B681B686FF0010286
:1017A0001A617868FEF7A2FE7B681B681B6903F06C
:1017B0008003802B0ED17B681B68DB6803F08003FD
:1017C000802B07D17B681B686FF080021A617868F4
:1017D00000F0BFF87B681B681B6903F04003402BD7
:1017E0000ED17B681B68DB6803F04003402B07D1F8
:1017F0007B681B686FF040021A61786800F035F86A
:101800007B681B681B6903F02003202B0ED17B68CB
:101810001B68DB6803F02003202B07D17B681B6863
:101820006FF020021A61786800F08AF800BF08376C
:10183000BD4680BD80B483B000AF786000BF0C3778
:10184000BD4680BC704780B483B000AF786000BFF5
:101850000C37BD4680BC704780B483B000AF786061
:1018600000BF0C37BD4680BC704780B483B000AF6A
:10187000786000BF0C37BD4680BC704780B485B02F
:1018800000AF786039607B681B68FB607B68294A21
:1018900093420BD07B68B3F1804F07D07B68264A18
:1018A000934203D07B68254A934208D1FB6823F01A
:1018B0007003FB603B685B68FA681343FB607B68FE
:1018C0001C4A93420BD07B68B3F1804F07D07B68F2
:1018D000194A934203D07B68184A934208D1FB68A7
:1018E00023F44073FB603B68DB68FA681343FB60DA
:1018F000FB6823F080023B685B691343FB607B68F5
:10190000FA681A603B689A687B68DA623B681A6812
:101910007B689A627B68074A934203D13B681A69E5
:101920007B681A637B6801225A6100BF1437BD4689
:1019300080BC7047002C01400004004000080040BB
:1019400080B483B000AF786000BF0C37BD4680BC68
:10195000704780B483B000AF786000BF0C37BD46DD
:1019600080BC704780B485B000AF0346FB80002385
:10197000FB60B7F90630842B05D0B7F90620FB6869
:1019800013440333FB60FB6818461437BD4680BC24
:10199000704780B500AF00F0E7FA0023184680BD1D
:1019A000F0B589B004AF786039607B685B69002B63
:1019B00020D07B689B69002B1CD07B685C687B68AF
:1019C0001D687B681E697B68B3F908301846FFF70D
:1019D000C9FF01467B685B697A689269029201934C
:1019E00000913B6832462946204600F0E8F803465D
:1019F000FB601CE07B685C687B681D687B681B691A
:101A00009EB27B68B3F908301846FFF7ABFF024679
:101A100007F10C03019300923B68324629462046A9
:101A200000F029F90346012B01D0002300E0FB68F8
:101A300018461437BD46F0BD80B584B000AF78605D
:101A40007B68FB60FB68002B01D0FB6800E0012392
:101A5000184600F055FA002318461037BD4680BDE1
:101A600080B483B000AF78607B6803F108027B68C4
:101A70005A607B684FF0FF329A607B6803F108027E
:101A80007B68DA607B6803F108027B681A617B6817
:101A900000221A6000BF0C37BD4680BC704780B47E
:101AA00083B000AF78607B6800221A6100BF0C37FA
:101AB000BD4680BC704780B485B000AF78603960A7
:101AC0007B685B68FB603B68FA685A60FB689A68F1
:101AD0003B689A60FB689B683A685A60FB683A68A2
:101AE0009A603B687A681A617B681B685A1C7B683D
:101AF0001A6000BF1437BD4680BC704780B485B003
:101B000000AF786039603B681B68BB60BB68B3F1AD
:101B1000FF3F03D17B681B69FB600CE07B680833E7
:101B2000FB6002E0FB685B68FB60FB685B681B684E
:101B3000BA689A42F6D2FB685A683B685A603B68BA
:101B40005B683A689A603B68FA689A60FB683A6832
:101B50005A603B687A681A617B681B685A1C7B680C
:101B60001A6000BF1437BD4680BC704780B485B092
:101B700000AF78607B681B69FB607B685B687A6894
:101B800092689A607B689B687A6852685A60FB68C2
:101B90005B687A689A4203D17B689A68FB685A60EE
:101BA0007B6800221A61FB681B685A1EFB681A607A
:101BB000FB681B6818461437BD4680BC704780B56B
:101BC0008EB004AFF860B9607A603B607B6B002B2D
:101BD0000AD14FF0500383F31188BFF36F8FBFF327
:101BE0004F8F3B6200BFFEE7BB6B002B0AD14FF06B
:101BF000500383F31188BFF36F8FBFF34F8FFB61E7
:101C000000BFFEE7B4233B613B69B42B0AD04FF021
:101C1000500383F31188BFF36F8FBFF34F8FBB6106
:101C200000BFFEE7BB6B002B1ED07B6B002B1BD0D5
:101C3000BB6B7B627B6A7A6B1A637B6A022283F8D6
:101C4000B120002303937B6A029307F114030193ED
:101C50003B6B00933B687A68B968F86800F050F80D
:101C6000786A00F0E3F801E000237B617B691846A5
:101C70002837BD4680BD80B58CB004AFF860B96030
:101C80003B601346FB80FB889B00184600F098FEE3
:101C900078617B69002B0ED0B42000F091FEF861D2
:101CA000FB69002B03D0FB697A691A6305E0786948
:101CB00000F04AFF01E00023FB61FB69002B17D015
:101CC000FB69002283F8B120FA8800230393FB69A3
:101CD0000293FB6A0193BB6A00933B68B968F8689A
:101CE00000F00EF8F86900F0A1F80123BB6102E0F2
:101CF0004FF0FF33BB61BB6918462037BD4680BD3E
:101D000080B588B000AFF860B9607A603B603B6B2B
:101D10001A6B7B6803F18043013B9B001344BB615A
:101D2000BB6923F00703BB61BB6903F00703002B0A
:101D30000AD04FF0500383F31188BFF36F8FBFF3C6
:101D40004F8F7B6100BFFEE70023FB6112E0BA68A2
:101D5000FB69134419783A6BFB69134434330A4620
:101D60001A70BA68FB6913441B78002B06D0FB6914
:101D70000133FB61FB690F2BE9D900E000BF3B6B2E
:101D8000002283F84320BB6A062B01D90623BB62DD
:101D90003B6BBA6ADA623B6BBA6A5A643B6B0022ED
:101DA0009A643B6B04331846FFF779FE3B6B18339C
:101DB0001846FFF774FE3B6B3A6B1A61BB6AC3F1BE
:101DC00007023B6B9A613B6B3A6B5A623B6B00229A
:101DD000C3F8AC203B6B002283F8B0203B6B4C3344
:101DE00060220021184600F0E9FF3B6B0C4A1A659F
:101DF0003B6B0C4A5A653B6B0B4A9A653A68F9682B
:101E0000B86900F029FC02463B6B1A60FB6A002BA4
:101E100002D0FB6A3A6B1A6000BF2037BD4680BD16
:101E2000DC2F0008FC2F0008BC2F000880B582B012
:101E300000AF786000F002FD2A4B1B680133294A8D
:101E40001360294B1B68002B09D1274A7B6813605C
:101E5000244B1B68012B10D100F0D2FA0DE0234B6C
:101E60001B68002B09D1204B1B68DA6A7B68DB6A90
:101E70009A4202D81C4A7B6813601D4B1B680133D1
:101E80001B4A13607B68DB6A01229A40194B1B686E
:101E90001343184A13607B68DA6A13469B001344A5
:101EA0009B00154A1A447B68043319461046FFF715
:101EB00002FE00F0F3FC0D4B1B68002B0ED00A4B0A
:101EC0001B68DA6A7B68DB6A9A4207D20B4B4FF0D9
:101ED00080521A60BFF34F8FBFF36F8F00BF083778
:101EE000BD4680BDA0040020A0030020AC0400205B
:101EF000BC040020A8040020A403002004ED00E09E
:101F000080B584B000AF78600023FB607B68002B55
:101F100017D0134B1B68002B0AD04FF0500383F3EC
:101F20001188BFF36F8FBFF34F8FBB6000BFFEE719
:101F300000F084F80021786800F028FB00F08CF8AD
:101F4000F860FB68002B07D1064B4FF080521A60F7
:101F5000BFF34F8FBFF36F8F00BF1037BD4680BDFB
:101F6000C804002004ED00E080B58AB004AF00236F
:101F7000BB6000237B603A46391D07F10803184611
:101F8000FEF7E6F839687B68BA680292019300238D
:101F9000009300230A4621492148FFF710FE03461B
:101FA000204A13601F4B1B68002B02D001237B616A
:101FB00001E000237B617B69012B1BD14FF05003B3
:101FC00083F31188BFF36F8FBFF34F8F3B6100BF67
:101FD000154B1B684C33154A1360154B4FF0FF32FD
:101FE0001A60144B01221A60134B00221A6000F091
:101FF000B3FB0EE07B69B3F1FF3F0AD14FF0500312
:1020000083F31188BFF36F8FBFF34F8FFB6000BF67
:10201000FEE700BF1837BD4680BD00BF9C2F0008FB
:10202000D1230008C4040020A003002018000020D1
:10203000C0040020AC040020A404002080B400AF41
:10204000044B1B680133034A136000BFBD4680BCCC
:10205000704700BFC804002080B584B000AF0023E3
:10206000FB600023BB60414B1B68002B0AD14FF083
:10207000500383F31188BFF36F8FBFF34F8F3B6023
:1020800000BFFEE700F0DAFB384B1B68013B374A24
:102090001360364B1B68002B61D1354B1B68002B3E
:1020A0005DD02EE0334BDB68DB68FB60FB681833E8
:1020B0001846FFF75BFDFB6804331846FFF756FD33
:1020C000FB68DB6A01229A402B4B1B6813432A4AA8
:1020D0001360FB68DA6A13469B0013449B00274A8F
:1020E0001A44FB68043319461046FFF7E4FCFB680A
:1020F000DA6A234B1B68DB6A9A4202D3214B012226
:102100001A601C4B1B68002BCCD1FB68002B01D044
:1021100000F018FA1C4B1B687B607B68002B10D00A
:1021200000F036F80346002B02D0164B01221A604D
:102130007B68013B7B607B68002BF1D1124B002256
:102140001A60104B1B68002B09D00123BB600F4B9A
:102150004FF080521A60BFF34F8FBFF36F8F00F0C4
:102160009DFBBB6818461037BD4680BDC8040020E3
:10217000A004002060040020A8040020A403002084
:10218000A0030020B4040020B004002004ED00E00F
:1021900080B586B000AF00237B61514B1B68002BDC
:1021A00040F08D804F4B1B6801333B614D4A3B69CA
:1021B00013603B69002B20D14B4B1B681B68002B25
:1021C0000AD04FF0500383F31188BFF36F8FBFF332
:1021D0004F8F3B6000BFFEE7434B1B68FB60434BE8
:1021E0001B68414A1360414AFB681360404B1B68FF
:1021F00001333F4A136000F0A5F93E4B1B683A6972
:102200009A424DD3384B1B681B68002B01D1012328
:1022100000E00023002B04D0364B4FF0FF321A6051
:102220003EE0314B1B68DB68DB68BB60BB685B680A
:102230007B603A697B689A4203D22E4A7B681360BE
:102240002EE0BB6804331846FFF790FCBB689B6A1E
:10225000002B04D0BB6818331846FFF787FCBB6817
:10226000DB6A01229A40244B1B681343224A136005
:10227000BB68DA6A13469B0013449B001F4A1A444A
:10228000BB68043319461046FFF715FCBB68DA6AD1
:102290001B4B1B68DB6A9A42B4D301237B61B1E715
:1022A000174B1B68DA6A154913469B0013449B00C1
:1022B0000B441B68012B07D901237B6104E0114B00
:1022C0001B6801330F4A13600F4B1B68002B01D0B2
:1022D00001237B617B6918461837BD4680BD00BF6E
:1022E000C8040020A4040020580400205C0400203E
:1022F000B8040020C0040020A8040020A40300208B
:10230000A0030020B0040020B404002080B487B0F3
:1023100000AF294B1B68002B03D0284B01221A6009
:1023200044E0264B00221A60254B1B68FB60FB68CB
:10233000B3FA83F3FB72FB7AC3F11F037B6121497C
:102340007A6913469B0013449B000B441B68002BC7
:102350000AD14FF0500383F31188BFF36F8FBFF39F
:102360004F8F7B6000BFFEE77A6913469B001344E2
:102370009B00144A13443B613B695B685A683B69A4
:102380005A603B695A683B6908339A4204D13B69F9
:102390005B685A683B695A603B695B68DB680A4A5C
:1023A0001360094B1B684C33084A136000BF1C378D
:1023B000BD4680BC704700BFC8040020B4040020A4
:1023C000A8040020A4030020A0030020180000207F
:1023D00080B582B000AF786000F052F8064B1B6801
:1023E000012BF9D9054B4FF080521A60BFF34F8F84
:1023F000BFF36F8FF0E700BFA403002004ED00E0FF
:1024000080B582B000AF00237B600CE07A68134691
:102410009B0013449B00124A13441846FFF720FB0D
:102420007B6801337B607B68062BEFD90D48FFF793
:1024300017FB0D48FFF714FB0C48FFF711FB0C4886
:10244000FFF70EFB0B48FFF70BFB0B4B054A1A601F
:102450000A4B054A1A6000BF0837BD4680BD00BF61
:10246000A403002030040020440400206004002065
:10247000740400208C040020580400205C04002018
:1024800080B582B000AF19E000F0D8F9104BDB68DE
:10249000DB687B607B6804331846FFF767FB0D4BF6
:1024A0001B68013B0B4A13600B4B1B68013B0A4A3C
:1024B000136000F0F3F9786800F010F8064B1B6821
:1024C000002BE1D100BF00BF0837BD4680BD00BF73
:1024D00074040020A00400208804002080B584B08B
:1024E00000AF78607B684C33184600F07DFC7B6859
:1024F00093F8B130002B08D17B681B6B184600F0B5
:1025000023FB786800F020FB18E07B6893F8B1307B
:10251000012B03D1786800F017FB0FE07B6893F87C
:10252000B130022B0AD04FF0500383F31188BFF370
:102530006F8FBFF34F8FFB6000BFFEE700BF103708
:10254000BD4680BD80B483B000AF0E4B1B681B68D6
:10255000002B01D1012300E00023002B04D00A4B03
:102560004FF0FF321A6008E0064B1B68DB68DB683F
:102570007B607B685B68044A136000BF0C37BD4614
:1025800080BC704758040020C004002080B584B08F
:1025900000AF78603960294B1B68FB60284B1B68D3
:1025A00004331846FFF7E2FA0346002B0BD1244B05
:1025B0001B68DB6A012202FA03F3DA43214B1B6832
:1025C0001340204A13607B68B3F1FF3F0AD13B6898
:1025D000002B07D01A4B1B68043319461A48FFF723
:1025E0006AFA26E0FA687B681344BB60144B1B68E8
:1025F000BA685A60BA68FB689A4209D2134B1A68E3
:102600000F4B1B68043319461046FFF777FA10E0AA
:102610000F4B1A680A4B1B68043319461046FFF724
:102620006DFA0C4B1B68BA689A4202D2094ABB6821
:10263000136000BF1037BD4680BD00BFA40400205A
:10264000A0030020A80400208C0400205C040020CB
:1026500058040020C004002080B485B000AFF860AA
:10266000B9607A60FB68043BFB60FB684FF08072E6
:102670001A60FB68043BFB60BB6823F00102FB6847
:102680001A60FB68043BFB60084AFB681A60FB6841
:10269000143BFB607A68FB681A60FB68203BFB60B8
:1026A000FB6818461437BD4680BC7047B126000849
:1026B00080B485B000AF00237B60124B1B68B3F180
:1026C000FF3F0AD04FF0500383F31188BFF36F8FA1
:1026D000BFF34F8FFB6000BFFEE74FF0500383F363
:1026E0001188BFF36F8FBFF34F8FBB6000BF00BF78
:1026F0007B68002BFCD000BF00BF1437BD4680BCF8
:10270000704700BF1400002000000000000000001F
:10271000074B19680868B0E8F00F80F30988BFF329
:102720006F8F4FF0000080F311884EF00D0E704750
:10273000A003002000BF00BF06480068006880F3C7
:10274000088862B661B6BFF34F8FBFF36F8F00DFAB
:1027500000BF00BF08ED00E080B584B000AF324B91
:10276000FB60FB681B78DBB27B60FB68FF221A70A2
:10277000FB681B78DBB2FB70FB78DBB203F0500325
:10278000DAB22A4B1A702A4B07221A6009E0284B4A
:102790001B68013B264A1360FB78DBB25B00DBB2AF
:1027A000FB70FB78DBB203F08003802BEFD0204B73
:1027B0001B68C3F10703042B0AD04FF0500383F3C7
:1027C0001188BFF36F8FBFF34F8FBB6000BFFEE771
:1027D000174B1B681B02164A1360154B1B6803F44A
:1027E000E063134A13607B68DAB2FB681A70114B1E
:1027F0001B68104A43F4700313600E4B1B680D4AAC
:1028000043F07043136000F0B9F80B4B00221A60DC
:10281000FFF792FFFFF77AFDFFF74AFF0023184604
:102820001037BD4680BD00BF00E400E0CC040020AE
:10283000D004002020ED00E01400002080B483B01C
:1028400000AF4FF0500383F31188BFF36F8FBFF3D6
:102850004F8F7B6000BF0F4B1B6801330D4A136025
:102860000C4B1B68012B0FD10B4B1B68DBB2002BF1
:102870000AD04FF0500383F31188BFF36F8FBFF37B
:102880004F8F3B6000BFFEE700BF0C37BD4680BCEA
:10289000704700BF1400002004ED00E080B483B056
:1028A00000AF114B1B68002B0AD14FF0500383F38C
:1028B0001188BFF36F8FBFF34F8F7B6000BFFEE7C0
:1028C000094B1B68013B084A1360074B1B68002B30
:1028D00005D100233B603B6883F3118800BF00BF34
:1028E0000C37BD4680BC704714000020000000007B
:1028F000EFF30980BFF36F8F0D4B1A6820E9F00FDB
:1029000010602DE908404FF0500080F31188FFF768
:10291000FDFC4FF0000080F31188BDE80840196805
:102920000868B0E8F00F80F30988BFF36F8F704735
:10293000A003002000BF00BF80B582B000AF4FF001
:10294000500383F31188BFF36F8FBFF34F8F7B600A
:1029500000BFFFF71DFC0346002B03D0064B4FF0D2
:1029600080521A6000233B603B6883F3118800BFEC
:1029700000BF0837BD4680BD04ED00E080B400AF65
:102980000A4B00221A600A4B00221A60094B1B688E
:10299000094AA2FB03239B09084A013B1360034B2E
:1029A00007221A6000BFBD4680BC704710E000E0FF
:1029B00018E000E008000020D34D621014E000E0B1
:1029C00080B58AB000AF78600023FB61FFF736FB6B
:1029D000584B1B68002B01D100F010F9564B1A68B8
:1029E0007B681340002B40F08E807B68002B1DD04D
:1029F00008227B6813447B607B6803F00703002B8D
:102A000014D07B6823F0070308337B607B6803F0F6
:102A10000703002B0AD04FF0500383F31188BFF354
:102A20006F8FBFF34F8F7B6100BFFEE77B68002B8A
:102A300069D0424B1B687A689A4264D8404B3B622B
:102A40003F4B1B687B6204E07B6A3B627B6A1B68CE
:102A50007B627B6A5B687A689A4203D97B6A1B68EF
:102A6000002BF1D1334B1B687A6A9A424BD03B6AF8
:102A70001B6808221344FB617B6A1A683B6A1A6070
:102A80007B6A5A687B68D21A08235B009A421FD976
:102A90007A6A7B681344BB61BB6903F00703002BB0
:102AA0000AD04FF0500383F31188BFF36F8FBFF349
:102AB0004F8F3B6100BFFEE77B6A5A687B68D21A82
:102AC000BB695A607B6A7A685A60B86900F0F8F8A6
:102AD0001A4B1A687B6A5B68D31A184A1360174B43
:102AE0001A68184B1B689A4203D2144B1B68154A8C
:102AF00013607B6A5A68104B1B681A437B6A5A60E2
:102B00007B6A00221A60FFF7A7FAFB6903F007034C
:102B1000002B0AD04FF0500383F31188BFF36F8F5F
:102B2000BFF34F8FFB6000BFFEE7FB6918462837F5
:102B3000BD4680BDDC100020E8100020E010002021
:102B4000D4100020E410002080B586B000AF78607B
:102B50007B687B617B68002B48D008235B427A69E5
:102B600013447B617B693B613B695A68214B1B685D
:102B70001340002B0AD14FF0500383F31188BFF3A9
:102B80006F8FBFF34F8FFB6000BFFEE73B691B6891
:102B9000002B0AD04FF0500383F31188BFF36F8FDF
:102BA000BFF34F8FBB6000BFFEE73B695A68114B14
:102BB0001B681340002B19D03B691B68002B15D1F3
:102BC0003B695A680B4B1B68DB431A403B695A60F0
:102BD000FFF734FA3B695A68074B1B681344064AEF
:102BE0001360386900F06CF8FFF736FA00BF183749
:102BF000BD4680BDE8100020E010002080B485B004
:102C000000AF4FF44063BB60274BFB60FB6803F0F1
:102C10000703002B0CD0FB680733FB60FB6823F035
:102C20000703FB60BA68FB68D31A1F4A1344BB60F2
:102C3000FB687B601D4A7B6813601C4B00225A6056
:102C40007B68BA681344FB600822FB689B1AFB6030
:102C5000FB6823F00703FB60FB68154A1360144B05
:102C60001B6800225A60124B1B6800221A607B68A6
:102C70003B603B68FA68D21A3B685A600C4B1A6892
:102C80003B681A603B685B680A4A13603B685B6894
:102C9000094A1360094B4FF000421A6000BF143715
:102CA000BD4680BC704700BFD4040020D410002073
:102CB000DC100020E4100020E0100020E8100020CC
:102CC00080B485B000AF7860274BFB6002E0FB6802
:102CD0001B68FB60FB681B687A689A42F7D8FB6840
:102CE000BB60FB685B68BA6813447A689A4208D193
:102CF000FB685A687B685B681A44FB685A60FB682B
:102D00007B607B68BB607B685B68BA681A44FB6861
:102D10001B689A4218D1FB681A68144B1B689A42C8
:102D20000DD07B685A68FB681B685B681A447B6837
:102D30005A60FB681B681A687B681A6008E00B4BD6
:102D40001A687B681A6003E0FB681A687B681A607F
:102D5000FA687B689A4202D0FB687A681A6000BF02
:102D60001437BD4680BC7047D4100020DC10002012
:102D700070B500260C4D0D4C641BA410A64209D161
:102D800000F0E2F800260A4D0A4C641BA410A6428B
:102D900005D170BD55F8043B98470136EEE755F86C
:102DA000043B98470136F2E71C3000081C3000084D
:102DB0001C3000082030000870477047034602446A
:102DC000934200D1704703F8011BF9E738B50C4670
:102DD0000968054609B1FFF7F9FF21462846BDE815
:102DE000384000F069B800002C4B70B51B680446F1
:102DF000834251D0436A43B1DB68002B4AD1636AF6
:102E0000196811B1204600F057F8616911B12046E8
:102E100000F052F8616A11B1204600F04DF8A16B44
:102E200011B1204600F048F8E16B11B1204600F0E6
:102E300043F8216C11B1204600F03EF8E16D11B16C
:102E4000204600F039F8A16D11B1204600F034F8A9
:102E5000616B11B1204600F02FF8A369E3B1204661
:102E6000A36A9847A16CB9B12046BDE87040FFF74E
:102E7000ADBF495941B90435636A802DD968F8D18D
:102E8000204600F019F8BAE70E68204600F014F862
:102E90003146EFE70025EFE770BD00BF18000020C6
:102EA0000148FFF789BF00BFEC1000200148FFF781
:102EB00084BF00BFEC10002038B50546002940D083
:102EC00051F8043C0C1F002BB8BFE418FFF7E8FFD3
:102ED0001C4A136833B9636014602846BDE8384063
:102EE000FFF7E4BFA34208D9206821188B4201BF35
:102EF00019685B6809182160EDE71A465B680BB139
:102F0000A342FAD911685018A0420BD1206801449D
:102F1000501883421160E0D118685B680144116069
:102F20005360DAE702D90C232B60D6E7206821181A
:102F30008B4201BF19685B680918216063605460A7
:102F4000CBE738BDF0100020F8B500BFF8BC08BCD6
:102F50009E467047F8B500BFF8BC08BC9E46704757
:102F600064656661756C745461736B004C45440014
:102F7000602F0008DD0400080000000000000000D1
:102F800080000000000000000000000002030405B3
:102F9000060708090A0B0C0D0E0F101049444C458A
:102FA0000000000000000000000000000102030417
:102FB00006070809000000000102030400000000E9
:102FC0000000000000000000000000000000000001
:102FD00000000000000000000000000000000000F1
:102FE00000000000000000000000000000000000E1
:102FF00000000000000000000000000000000000D1
:1030000000000000000000000000000000000000C0
:0C301000000000000000000000000000B4
:04301C003501000872
:043020001101000892
:103024004352581C4C6461000024F400100000005A
:1030340001000000AAAAAAAA1C00002000000000A7
:10304400DC2F0008FC2F0008BC2F00080000000043
:10305400000000000000000000000000000000006C
:10306400000000000000000000000000000000005C
:10307400000000000000000000000000000000004C
:10308400000000000000000000000000000000003C
:0C30940000000000000000000000000030
:04000005080006BD2C
:00000001FF
