:020000040800F2
:10000000005000208D0A0008350A00083B0A00084D
:10001000410A0008470A00084D0A000800000000D5
:10002000000000000000000000000000713900081E
:10003000530A000800000000513B0008993B0008EB
:10004000D50A0008D50A0008D50A0008D50A000814
:10005000D50A0008D50A0008D50A0008D50A000804
:10006000D50A0008D50A0008D50A0008D50A0008F4
:10007000D50A0008D50A0008D50A0008D50A0008E4
:10008000D50A0008D50A0008D50A0008D50A0008D4
:10009000D50A0008D50A0008D50A00085F0A00083A
:1000A000D50A0008D50A0008D50A0008D50A0008B4
:1000B0006D0A0008D50A0008D50A0008D50A00080C
:1000C000D50A0008D50A0008D50A0008D50A000894
:1000D000D50A0008D50A0008D50A0008D50A000884
:1000E000D50A0008D50A0008D50A0008000000005B
:1000F0000000000000000000000000000000000000
:0C01000000000000000000005FF808F1A3
:1001100010B5054C237833B9044B13B10448AFF341
:1001200000800123237010BD740000200000000037
:10013000A841000808B5034B1BB103490348AFF3BE
:10014000008008BD0000000078000020A8410008E1
:1001500080B485B000AFF860B9607A60FB68064A89
:100160001A60BB68054A1A607B6880221A6000BF6B
:100170001437BD4680BC7047900000204401002029
:1001800080B584B000AF03460A46FB711346BB71CD
:10019000BB79002B02D10023FB7301E00123FB7329
:1001A000FB79013B072B52D801A252F823F000BF84
:1001B000D1010008E1010008EF010008FF0100087B
:1001C0000F0200081F0200082F0200083F0200086B
:1001D000FB7B1A464FF400611F4800F02AFF37E00E
:1001E000FB7B1A4610211D4800F023FF30E0FB7B0B
:1001F0001A464FF40051194800F01BFF28E0FB7B22
:100200001A464FF40041154800F013FF20E0FB7B35
:100210001A464FF48071104800F00BFF18E0FB7B8A
:100220001A464FF480510C4800F003FF10E0FB7BAE
:100230001A464FF48051094800F0FBFE08E0FB7BB2
:100240001A464FF48041054800F0F3FE00E000BF7D
:1002500000BF1037BD4680BD00080140000C0140C2
:1002600080B584B000AF03460A46FB711346BB71EC
:1002700001224FF480612F4800F0DBFE01220821AB
:100280002D4800F0D6FE01224FF40041294800F02D
:10029000D0FE01224FF40071264800F0CAFEFB791F
:1002A000032B26D801A252F823F000BFBD0200089C
:1002B000CB020008D7020008E502000800224FF434
:1002C00080611C4800F0B5FE14E0002208211A48A5
:1002D00000F0AFFE0EE000224FF40041154800F0A0
:1002E000A8FE07E000224FF40071124800F0A1FEC2
:1002F00000E000BF0023FB7313E0FB7BC3F10803A6
:10030000D8B2BA79FB7BC3F1070342FA03F3DBB23D
:1003100003F00103DBB21946FFF732FFFB7B013329
:10032000FB73FB7B072BE8D900BF00BF1037BD462E
:1003300080BD00BF00080140000C014080B584B0C2
:1003400000AF78600023FB73FB7B094AD25CFB7B28
:1003500011461846FFF784FFFB7B0133FB73FB7BE1
:10036000042B01D10023FB73032002F0FBFEEBE71B
:10037000A803002080B586B000AF78600023FB752D
:10038000164B1B683B610023FB7316E03969144B65
:10039000A3FB0123DA0813469B0013445B00CA1A2F
:1003A000FB7BD1B20F4AD1543B690D4AA2FB032318
:1003B000DB083B61FB7B0133FB73FB7B032BE5D944
:1003C000FB7D0133FB75FB7D0A2B01D10023FB75FF
:1003D0004FF47A7002F0C6FED2E700BFA4030020FB
:1003E000CDCCCCCCA803002080B584B000AF0346B0
:1003F000FB802021144800F005FE0346002B10D09E
:10040000124BDB69114A43F00103D3610F4BDB69E7
:1004100003F00103FB60FB684FF0804300225A6247
:100420000EE04FF080435B6A094A13604FF080434F
:1004300000225A62054BDB69044A23F00103D361B1
:1004400000BF1037BD4680BD000C014000100240C7
:10045000A4030020B0B58AB002AF00F03DFB00F06D
:100460003DF800F039F900F097F800F0DFF8164B8E
:100470003C1D1D460FCD0FC495E8070084E807001A
:100480003B1D0021184602F0BDFB03460F4A1360D6
:100490000023019302230093002380220C490D487E
:1004A00002F01BFD0023019302230093002380220E
:1004B0000749094802F011FDFF210120FFF7D0FE96
:1004C00002F099FBFEE700BFD0410008A003002026
:1004D000CC4100083D0300087503000880B594B0C6
:1004E00000AF07F1280328220021184603F096FDEB
:1004F00007F1140300221A605A609A60DA601A61E8
:100500003B1D00221A605A609A60DA600523BB62C4
:100510004FF48033FB6200233B6301237B630123A1
:10052000BB6302237B644FF48033BB644FF4E0135E
:10053000FB6407F12803184600F0B8FD0346002BC2
:1005400001D000F07FF90F237B610223BB61002300
:10055000FB614FF480633B6200237B6207F114036D
:100560000221184601F024F80346002B01D000F0C8
:1005700069F901237B604FF48073BB603B1D184613
:1005800001F0CAF90346002B01D000F05BF900BF6F
:100590005037BD4680BD000080B582B000AF3B1D26
:1005A00000210A461A800A469A7000233B601D4BC0
:1005B0001D4A1A601B4B4FF0FF325A60194B002244
:1005C0009A60184801F01EFB0346002B01D000F092
:1005D00039F900233B7100237B710023BB713B1D64
:1005E000012219460F4801F0A3FB0346002B01D05E
:1005F00000F028F901233B7001237B700123BB70BD
:100600000023FB703B4601221946064801F028FCF6
:100610000346002B01D000F015F900BF0837BD4696
:1006200080BD00BF440300200028004080B586B094
:1006300000AF07F1080300221A605A609A60DA607E
:100640003B4600221A605A60224B4FF080421A60EB
:10065000204B00225A601F4B00229A601D4B4FF620
:10066000FF72DA601B4B00221A611A4B00229A615A
:10067000184801F055FE0346002B01D000F0E2F8C7
:100680004FF48053BB6007F108031946114802F08C
:100690004AF80346002B01D000F0D4F808210D4899
:1006A00001F0E0FE0346002B01D000F0CBF8002360
:1006B0003B6000237B603B461946064802F014FA73
:1006C0000346002B01D000F0BDF800BF1837BD462F
:1006D00080BD00BF5803002080B588B000AF07F18F
:1006E000100300221A605A609A60DA60434B9B69DB
:1006F000424A43F010039361404B9B6903F010039F
:10070000FB60FB683D4B9B693C4A43F020039361CF
:100710003A4B9B6903F02003BB60BB68374B9B6976
:10072000364A43F008039361344B9B6903F0080396
:100730007B607B68314B9B69304A43F004039361D3
:100740002E4B9B6903F004033B603B6800224FF48F
:1007500000512B4800F06DFC00224FF2580129484F
:1007600000F067FC00224FF41F41274800F061FCB5
:100770004FF400533B6101237B610023BB610223E3
:10078000FB6107F1100319461D4800F0B7FA4FF25C
:1007900058033B6101237B610023BB610223FB61A2
:1007A00007F110031946174800F0A8FA4FF41F4349
:1007B0003B6101237B610023BB610223FB6107F1E5
:1007C00010031946104800F099FA20233B610F4BA3
:1007D0007B610023BB6107F110031946094800F053
:1007E0008DFA00220521172000F05DFA172000F095
:1007F00076FA00BF2037BD4680BD00BF0010024022
:1008000000100140000C01400008014000003110C0
:1008100080B582B000AF7860012002F03FFAFBE7BC
:1008200080B582B000AF78607B681B68044A934251
:1008300001D100F067F900BF0837BD4680BD00BF99
:10084000002C014080B400AF72B600BFFEE700008C
:1008500080B584B000AF184B9B69174A43F0010381
:100860009361154B9B6903F00103BB60BB68124B9E
:10087000DB69114A43F08053D3610F4BDB6903F00E
:1008800080537B607B6800220F216FF0010000F035
:100890000AFA0A4B5B68FB60FB6823F0E063FB60CD
:1008A000FB6843F00073FB60044AFB68536000BFC1
:1008B0001037BD4680BD00BF00100240000001405F
:1008C00080B584B000AF78607B681B680B4A9342A8
:1008D00010D100F0DFFB0A4BDB69094A43F00063EB
:1008E000D361074BDB6903F00063FB60FB68054BDA
:1008F00001221A6000BF1037BD4680BD00280040AD
:10090000001002403C04424280B584B000AF7860E1
:100910007B681B68B3F1804F13D10C4BDB690B4A2A
:1009200043F00103D361094BDB6903F00103FB6072
:10093000FB68002205211C2000F0B5F91C2000F006
:10094000CEF900BF1037BD4680BD00BF0010024089
:1009500080B58CB000AF78600023BB6200237B625F
:10096000002387F82F302E4B9B692D4A43F40063F8
:1009700093612B4B9B6903F40063BB60BB6807F179
:100980000C0207F110031146184600F077FF00F043
:1009900061FFB862BB6A234AA2FB03239B0C013BA5
:1009A0007B62214B214A1A601F4B40F2E732DA602A
:1009B0001D4A7B6A53601C4B00221A611A4B0022AD
:1009C0009A60194B00229A61174801F0A9FC03466E
:1009D00087F82F3097F82F30002B1BD1124801F0E9
:1009E000EFFC034687F82F3097F82F30002B11D1FA
:1009F000192000F074F97B680F2B08D80022796861
:100A0000192000F050F90A4A7B68136002E00123C4
:100A100087F82F3097F82F3018463037BD4680BD05
:100A20000010024083DE1B43AC030020002C014079
:100A30000400002080B400AFFEE780B400AFFEE702
:100A400080B400AFFEE780B400AFFEE780B400AF33
:100A5000FEE780B400AF00BFBD4680BC704780B5E4
:100A600000AF202000F0FEFA00BF80BD80B500AFCF
:100A7000024801F050FD00BF80BD00BF58030020B8
:100A800080B400AF00BFBD4680BC70470C480D4924
:100A90000D4A002302E0D458C4500433C4188C42D9
:100AA000F9D30A4A0A4C002301E013600432A2423F
:100AB000FBD3FFF7E5FF03F08BFAFFF7CBFC7047A2
:100AC0000000002074000020944200087400002000
:100AD0004C110020FEE7000080B500AF084B1B68FA
:100AE000074A43F010031360032000F0D1F80F20F1
:100AF000FFF72EFFFFF7ACFE0023184680BD00BFB6
:100B00000020024080B400AF054B1B781A46054B0D
:100B10001B681344034A136000BFBD4680BC704786
:100B200008000020F403002080B400AF024B1B68D3
:100B30001846BD4680BC7047F403002080B485B0E1
:100B400000AF78607B6803F00703FB600C4BDB6849
:100B5000BB60BA684FF6FF031340BB60FB681A0224
:100B6000BB68134343F0BF6343F40033BB60044AE4
:100B7000BB68D36000BF1437BD4680BC704700BF60
:100B800000ED00E080B400AF044BDB681B0A03F00B
:100B900007031846BD4680BC704700BF00ED00E06B
:100BA00080B483B000AF0346FB7197F90730002B88
:100BB0000BDBFB7903F01F02064997F907305B094D
:100BC000012000FA02F241F8232000BF0C37BD4695
:100BD00080BC704700E100E080B483B000AF034602
:100BE0003960FB7197F90730002B0ADB3B68DAB2FA
:100BF0000C4997F907301201D2B20B4483F8002355
:100C00000AE03B68DAB20849FB7903F00F03043BC2
:100C10001201D2B20B441A7600BF0C37BD4680BC1D
:100C2000704700BF00E100E000ED00E080B489B053
:100C300000AFF860B9607A60FB6803F00703FB61FE
:100C4000FB69C3F10703042B28BF0423BB61FB69C5
:100C50000433062B02D9FB69033B00E000237B61D0
:100C60004FF0FF32BB6902FA03F3DA43BB681A4064
:100C70007B699A404FF0FF317B6901FA03F3D94356
:100C80007B680B40134318462437BD4680BC704731
:100C900080B582B000AF78607868FFF74FFF00BF83
:100CA0000837BD4680BD80B586B000AF0346B96049
:100CB0007A60FB7300237B61FFF764FF78617A68D9
:100CC000B9687869FFF7B2FF024697F90F3011460D
:100CD0001846FFF781FF00BF1837BD4680BD80B5BD
:100CE00082B000AF0346FB7197F907301846FFF753
:100CF00057FF00BF0837BD4680BD000080B48BB0F1
:100D000000AF7860396000237B6200233B6269E1B9
:100D100001227B6A02FA03F3FB613B681B68FA69F4
:100D20001340BB61BA69FB699A4240F058813B6845
:100D30005B689A4A93425ED0984A934275D8984A23
:100D4000934258D0964A93426FD8964A934252D0D3
:100D5000944A934269D8944A93424CD0924A93421F
:100D600063D8924A934246D0904A93425DD8122B60
:100D70002AD8122B59D801A252F823F0F70D0008F7
:100D8000D10D0008E30D0008250E00082B0E000809
:100D90002B0E00082B0E00082B0E00082B0E00084F
:100DA0002B0E00082B0E00082B0E00082B0E00083F
:100DB0002B0E00082B0E00082B0E00082B0E00082F
:100DC000D90D0008ED0D0008794A934213D02CE0AC
:100DD0003B68DB683B6229E03B68DB6804333B62CD
:100DE00024E03B68DB6808333B621FE03B68DB685C
:100DF0000C333B621AE03B689B68002B02D1042352
:100E00003B6213E03B689B68012B05D108233B62E2
:100E10007B68FA691A6109E008233B627B68FA691A
:100E20005A6103E000233B6200E000BFBB69FF2B77
:100E300001D87B6801E07B6804337B61BB69FF2BD1
:100E400002D87B6A9B0002E07B6A083B9B003B6107
:100E50007B691A680F213B6901FA03F3DB431A40EF
:100E6000396A3B6901FA03F31A437B691A603B68EC
:100E70005B6803F08053002B00F0B1804D4B9B6901
:100E80004C4A43F0010393614A4B9B6903F0010311
:100E9000BB60BB68484A7B6A9B08023352F8233028
:100EA000FB607B6A03F003039B000F2202FA03F34B
:100EB000DB43FA681340FB607B68404A934213D0DF
:100EC0007B683F4A93420DD07B683E4A934207D0ED
:100ED0007B683D4A934201D1032306E0042304E0EA
:100EE000022302E0012300E000237A6A02F00302F9
:100EF00092009340FA681343FB602F497B6A9B087A
:100F00000233FA6841F823203B685B6803F48033BE
:100F1000002B06D02D4B1A682C49BB6913430B607C
:100F200006E02A4B1A68BB69DB43284913400B6073
:100F30003B685B6803F40033002B06D0234B5A68F0
:100F40002249BB6913434B6006E0204B5A68BB69DA
:100F5000DB431E4913404B603B685B6803F480131E
:100F6000002B06D0194B9A681849BB6913438B6054
:100F700006E0164B9A68BB69DB43144913408B604B
:100F80003B685B6803F40013002B21D00F4BDA6839
:100F90000E49BB691343CB6021E000BF0000321053
:100FA000000031100000221000002110000012107B
:100FB0000000111000100240000001400008014034
:100FC000000C0140001001400014014000040140E9
:100FD0000B4BDA68BB69DB4309491340CB607B6A82
:100FE00001337B623B681A687B6A22FA03F3002BA9
:100FF0007FF48EAE00BF00BF2C37BD4680BC70476B
:101000000004014080B485B000AF78600B467B805F
:101010007B689A687B881340002B02D00123FB7306
:1010200001E00023FB73FB7B18461437BD4680BCF0
:10103000704780B483B000AF78600B467B80134666
:101040007B707B78002B03D07A887B681A6103E081
:101050007B881A047B681A6100BF0C37BD4680BCD0
:101060007047000080B582B000AF0346FB80084B9C
:101070005A69FB881340002B06D0054AFB88536150
:10108000FB881846FFF7B0F900BF0837BD4680BDA2
:101090000004014080B400AF034B01221A6000BF7E
:1010A000BD4680BC704700BF20000E4280B586B0B0
:1010B00000AF78607B68002B01D1012372E27B686E
:1010C0001B6803F00103002B00F08780924B5B68E4
:1010D00003F00C03042B0CD08F4B5B6803F00C0364
:1010E000082B12D18C4B5B6803F48033B3F5803F3F
:1010F0000BD1894B1B6803F40033002B6CD07B6849
:101100005B68002B68D101234CE27B685B68B3F518
:10111000803F06D1804B1B687F4A43F480331360C5
:101120002EE07B685B68002B0CD17B4B1B687A4AF6
:1011300023F480331360784B1B68774A23F48023B1
:1011400013601DE07B685B68B3F5A02F0CD1724B78
:101150001B68714A43F4802313606F4B1B686E4A0F
:1011600043F4803313600BE06B4B1B686A4A23F433
:1011700080331360684B1B68674A23F48023136035
:101180007B685B68002B13D0FFF7CEFC386108E06A
:10119000FFF7CAFC02463B69D31A642B01D903232B
:1011A00000E25D4B1B6803F40033002BF0D014E029
:1011B000FFF7BAFC386108E0FFF7B6FC02463B696E
:1011C000D31A642B01D90323ECE1534B1B6803F4BE
:1011D0000033002BF0D100E000BF7B681B6803F0F8
:1011E0000203002B63D04C4B5B6803F00C03002B15
:1011F0000BD0494B5B6803F00C03082B1CD1464B0A
:101200005B6803F48033002B16D1434B1B6803F05B
:101210000203002B05D07B681B69012B01D0012341
:10122000C0E13D4B1B6823F0F8027B685B69DB0083
:10123000394913430B603AE07B681B69002B20D0CF
:10124000364B01221A60FFF76FFC386108E0FFF7A8
:101250006BFC02463B69D31A022B01D90323A1E19F
:101260002D4B1B6803F00203002BF0D02A4B1B68A8
:1012700023F0F8027B685B69DB00274913430B60AE
:1012800015E0264B00221A60FFF74EFC386108E09B
:10129000FFF74AFC02463B69D31A022B01D903230C
:1012A00080E11D4B1B6803F00203002BF0D17B682B
:1012B0001B6803F00803002B3AD07B689B69002B66
:1012C00019D0174B01221A60FFF72EFC386108E095
:1012D000FFF72AFC02463B69D31A022B01D90323EC
:1012E00060E10D4B5B6A03F00203002BF0D001209C
:1012F00000F0F4FA1CE00A4B00221A60FFF714FC1D
:1013000038610FE0FFF710FC02463B69D31A022B4D
:1013100008D9032346E100BF00100240000042420A
:1013200080044242924B5B6A03F00203002BE9D136
:101330007B681B6803F00403002B00F0A6800023E9
:10134000FB758B4BDB6903F08053002B0DD1884B71
:10135000DB69874A43F08053D361854BDB6903F037
:101360008053BB60BB680123FB75824B1B6803F491
:101370008073002B18D17F4B1B687E4A43F4807327
:101380001360FFF7D1FB386108E0FFF7CDFB0246A1
:101390003B69D31A642B01D9032303E1754B1B6806
:1013A00003F48073002BF0D07B68DB68012B06D13F
:1013B0006F4B1B6A6E4A43F0010313622DE07B689A
:1013C000DB68002B0CD16A4B1B6A694A23F00103CE
:1013D0001362674B1B6A664A23F0040313621CE026
:1013E0007B68DB68052B0CD1614B1B6A604A43F0BC
:1013F000040313625E4B1B6A5D4A43F001031362F0
:101400000BE05B4B1B6A5A4A23F001031362584BF3
:101410001B6A574A23F0040313627B68DB68002BC6
:1014200015D0FFF781FB38610AE0FFF77DFB02462C
:101430003B69D31A41F28832934201D90323B1E0C8
:101440004B4B1B6A03F00203002BEED014E0FFF7B6
:101450006BFB38610AE0FFF767FB02463B69D31A72
:1014600041F28832934201D903239BE0404B1B6A2F
:1014700003F00203002BEED1FB7D012B05D13C4B89
:10148000DB693B4A23F08053D3617B68DB69002B27
:1014900000F08780364B5B6803F00C03082B61D0AB
:1014A0007B68DB69022B46D1334B00221A60FFF7C1
:1014B0003BFB386108E0FFF737FB02463B69D31A74
:1014C000022B01D903236DE0294B1B6803F0007345
:1014D000002BF0D17B681B6AB3F5803F08D1244B09
:1014E0005B6823F400327B689B68214913434B609F
:1014F0001F4B5B6823F474127B68196A7B685B6A14
:101500000B431B4913434B601B4B01221A60FFF72F
:101510000BFB386108E0FFF707FB02463B69D31A73
:10152000022B01D903233DE0114B1B6803F000732C
:10153000002BF0D035E0104B00221A60FFF7F4FAD0
:10154000386108E0FFF7F0FA02463B69D31A022B34
:1015500001D9032326E0064B1B6803F00073002B20
:10156000F0D11EE07B68DB69012B07D1012319E074
:101570000010024000700040600042420B4B5B686C
:10158000FB60FB6803F480327B681B6A9A4206D1D9
:10159000FB6803F470127B685B6A9A4201D00123F6
:1015A00000E0002318461837BD4680BD00100240F9
:1015B00080B584B000AF786039607B68002B01D1C2
:1015C0000123D0E06A4B1B6803F007033A689A4294
:1015D00010D9674B1B6823F0070265493B6813432A
:1015E0000B60634B1B6803F007033A689A4201D013
:1015F0000123B8E07B681B6803F00203002B20D0B6
:101600007B681B6803F00403002B05D0594B5B6813
:10161000584A43F4E06353607B681B6803F0080397
:10162000002B05D0534B5B68524A43F46053536020
:10163000504B5B6823F0F0027B689B684D49134375
:101640004B607B681B6803F00103002B40D07B6874
:101650005B68012B07D1474B1B6803F40033002B59
:1016600015D101237FE07B685B68022B07D1414BDA
:101670001B6803F00073002B09D1012373E03D4B7D
:101680001B6803F00203002B01D101236BE0394BEF
:101690005B6823F003027B685B68364913434B6049
:1016A000FFF742FAF8600AE0FFF73EFA0246FB68ED
:1016B000D31A41F28832934201D9032353E02D4BD0
:1016C0005B6803F00C027B685B689B009A42EBD17D
:1016D000274B1B6803F007033A689A4210D2244B49
:1016E0001B6823F0070222493B6813430B60204B21
:1016F0001B6803F007033A689A4201D0012332E0E5
:101700007B681B6803F00403002B08D0194B5B684F
:1017100023F4E0627B68DB68164913434B607B6807
:101720001B6803F00803002B09D0124B5B6823F4FD
:1017300060527B681B69DB000E4913434B6000F06D
:1017400021F802460B4B5B681B0903F00F030A49A3
:10175000CB5C22FA03F3094A1360094B1B68184655
:10176000FFF7F6F8002318461037BD4680BD00BFCE
:101770000020024000100240144200080000002037
:101780000400002090B48AB000AF294B3C1D0FCB61
:1017900084E80F0040F201233B800023FB6100231B
:1017A000BB6100237B6200237B6100233B62214BF2
:1017B0005B68FB61FB6903F00C03042B02D0082B70
:1017C00003D02BE01C4B3B622BE0FB699B0C03F02E
:1017D0000F0328333B4413F8243C7B61FB6903F47B
:1017E0008033002B12D0134B5B685B0C03F00103BA
:1017F00028333B4413F8283CBB617B690E4A03FB4A
:1018000002F2BB69B2FBF3F37B6204E07B690B4A33
:1018100002FB03F37B627B6A3B6202E0064B3B62A6
:1018200000BF3B6A18462837BD4690BC704700BFD2
:10183000EC4100080010024000127A0000093D004F
:1018400080B400AF024B1B681846BD4680BC704791
:101850000000002080B500AFFFF7F2FF0246054B05
:101860005B68DB0A03F007030349CB5C22FA03F34E
:10187000184680BD001002402442000880B483B0A6
:1018800000AF786039607B680F221A60114B5B688B
:1018900003F003027B685A600E4B5B6803F0F002B2
:1018A0007B689A600B4B5B6803F4E0627B68DA60EC
:1018B000084B5B68DB0803F4E0627B681A61064B47
:1018C0001B6803F007023B681A6000BF0C37BD4677
:1018D00080BC7047001002400020024080B485B0F8
:1018E00000AF78600A4B1B680A4AA2FB03235B0A1D
:1018F0007A6802FB03F3FB6000BFFB685A1EFA60C4
:10190000002BF9D100BF00BF1437BD4680BC704723
:1019100000000020D34D621080B586B000AF786023
:1019200000233B610023FB607B681B6803F001031D
:10193000002B7DD00023FB754F4BDB6903F08053F8
:10194000002B0DD14C4BDB694B4A43F08053D361E4
:10195000494BDB6903F08053BB60BB680123FB7517
:10196000464B1B6803F48073002B18D1434B1B6854
:10197000424A43F480731360FFF7D6F8386108E0F9
:10198000FFF7D2F802463B69D31A642B01D903232F
:101990006DE03A4B1B6803F48073002BF0D0364B9C
:1019A0001B6A03F44073FB60FB68002B2ED07B683E
:1019B0005B6803F44073FA689A4227D02E4B1B6A87
:1019C00023F44073FB602E4B01221A602C4B002243
:1019D0001A60294AFB681362FB6803F00103002BBD
:1019E00014D0FFF7A1F838610AE0FFF79DF802462E
:1019F0003B69D31A41F28832934201D9032336E07E
:101A00001D4B1B6A03F00203002BEED01A4B1B6A1E
:101A100023F440727B685B68174913430B62FB7DBC
:101A2000012B05D1144BDB69134A23F08053D3619A
:101A30007B681B6803F00203002B08D00E4B5B6829
:101A400023F440427B689B680B4913434B607B68DF
:101A50001B6803F01003002B08D0074B5B6823F4CE
:101A600080027B68DB68044913434B6000231846FF
:101A70001837BD4680BD00BF001002400070004016
:101A80004004424290B58DB000AF7860584B07F1EA
:101A90000C040FCB84E80F0040F201233B810023AC
:101AA0007B620023FB6200233B620023FB61002377
:101AB000BB627B68102B0AD07B68102B00F28E80F3
:101AC0007B68012B49D07B68022B79D086E0494B9B
:101AD0005B68FB61474B1B6803F08073002B7FD072
:101AE000FB699B0C03F00F0330333B4413F8243C99
:101AF0003B62FB6903F48033002B17D03D4B5B68DE
:101B00005B0C03F0010330333B4413F8283C7B6249
:101B1000FB6903F48033002B0DD0374A7B6AB2FB9C
:101B2000F3F23B6A02FB03F3FB6204E03B6A334AD5
:101B300002FB03F3FB622F4B5B6803F48003B3F5F6
:101B4000800F02D1FB6ABB624AE0FB6A5B002C4A51
:101B5000A2FB03235B08BB6242E0264B1B6AFB61CE
:101B6000FB6903F44073B3F5807F08D1FB6903F090
:101B70000203002B03D04FF40043BB621FE0FB695C
:101B800003F44073B3F5007F09D11A4B5B6A03F08D
:101B90000203002B03D049F64043BB620FE0FB6910
:101BA00003F44073B3F5407F1CD1124B1B6803F460
:101BB0000033002B16D04FF22443BB6212E011E039
:101BC000FFF748FE02460B4B5B689B0B03F00303D9
:101BD00001335B00B2FBF3F3BB6204E000BF02E041
:101BE00000BF00E000BFBB6A18463437BD4690BD59
:101BF000FC4100080010024000127A0000093D007C
:101C0000ABAAAAAA80B584B000AF78600023FB60BD
:101C10007B68002B01D1012384E07B685B7CDBB215
:101C2000002B05D17B6800221A747868FEF748FE05
:101C30007B6802225A74786800F0C8F90346002BCA
:101C400004D07B6804225A7401236BE0786800F0AA
:101C500081FA0346002B04D07B6804225A740123C6
:101C600060E07B681B685A687B681B6822F007028B
:101C70005A607B689B68002B05D02C4B1B6B2B4A52
:101C800023F001031363294BDB6A23F460727B6842
:101C90009B6826491343CB627B685B68B3F1FF3FC7
:101CA00003D07B685B68FB600EE00120FFF7EAFE73
:101CB000F860FB68002B04D17B6804225A7401236E
:101CC00030E0FB68013BFB607B681B689B6823F08E
:101CD0000F01FB681A0C7B681B680A439A607B68DB
:101CE0001B68DB681B0C1B04FA6891B27A681268E7
:101CF0000B43D360786800F055FA0346002B04D0FC
:101D00007B6804225A7401230CE07B680022DA739A
:101D10007B6801225A737B6801229A737B680122D7
:101D20005A74002318461037BD4680BD006C004031
:101D300090B587B000AFF860B9607A6000237B612E
:101D400000233B61FB68002B02D0BB68002B01D154
:101D5000012380E0FB681B7C012B01D102237AE088
:101D6000FB6801221A74FB6802225A747B68002BFC
:101D700013D1BB681B781A464FF4616303FB02F270
:101D8000BB685B7819460B461B015B1A9B0013442A
:101D9000BA68927813447B611EE0BB681B781846D2
:101DA00000F028FA03461A464FF4616303FB02F47D
:101DB000BB685B78184600F01DFA03461A461346C6
:101DC0001B019B1A9B001C44BB689B78184600F0C3
:101DD00011FA034623447B617969F86800F053F9EE
:101DE0000346002B07D0FB6804225A74FB680022CC
:101DF0001A7401232FE0FB681B685A68FB681B6894
:101E000022F005025A60F86800F064F938613B6915
:101E1000B3F1FF3F18D03A697B699A4214D23B690B
:101E200003F5A83303F5C0733B613969F86800F026
:101E30006AF90346002B07D0FB6804225A74FB683A
:101E400000221A74012306E0FB6801225A74FB6821
:101E500000221A74002318461C37BD4690BD0000AE
:101E600080B588B000AFF860B9607A600023FB618C
:101E70000023BB6100237B61FB68002B02D0BB68A1
:101E8000002B01D1012397E0FB681B7C012B01D1C2
:101E9000022391E0FB6801221A74FB6802225A7443
:101EA0007B68002B0CD1BB68DA78FB68DA73BB68FF
:101EB0005A78FB685A73BB689A78FB689A731AE081
:101EC000BB68DB78184600F095F903461A46FB68B4
:101ED000DA73BB685B78184600F08CF903461A4643
:101EE000FB685A73BB689B78184600F083F9034679
:101EF0001A46FB689A73FB68DB7B1846FB68597BC4
:101F0000FB689B7B1A4600F093F903461A46FB6870
:101F10001A73FB681A7BBB681A70F86800F083F8C4
:101F2000F861FB69264AA2FB0323DB0A7B617B691C
:101F3000182B3AD97B69234AA2FB03231B09224AA7
:101F400002FB03F3FA69D31AFB61F969F86800F040
:101F50009AF80346002B07D0FB6804225A74FB68EA
:101F600000221A74012327E0F86800F0B3F8B86182
:101F7000BB69B3F1FF3F18D0BA69FB699A4214D22A
:101F8000BB6903F5A83303F5C073BB61B969F86891
:101F900000F0B9F80346002B07D0FB6804225A74FE
:101FA000FB6800221A74012306E0FB6801225A74C0
:101FB000FB6800221A74002318462037BD4680BDF6
:101FC000C5B3A291ABAAAAAA8051010080B584B082
:101FD00000AF78600023FB607B68002B01D10123F8
:101FE0001DE07B681B685A687B681B6822F008024A
:101FF0005A60FEF799FDF86009E0FEF795FD02468C
:10200000FB68D31AB3F57A7F01D9032307E07B6815
:102010001B685B6803F00803002BEED00023184612
:102020001037BD4680BD80B487B000AF7860002314
:102030007B8200233B820023FB8100237B617B6842
:102040001B689B697B827B681B68DB69FB817B6803
:102050001B689B693B827A8A3B8A9A4208D03B8AFA
:102060001A047B681B68DB699BB213437B6104E045
:102070007B8A1A04FB8913437B617B6918461C37F2
:10208000BD4680BC704780B584B000AF78603960D1
:102090000023FB73786800F05DF80346002B02D044
:1020A0000123FB7311E07B681B683A68120C9A618C
:1020B0007B681B683A6892B2DA61786800F072F85F
:1020C0000346002B01D00123FB73FB7B184610371E
:1020D000BD4680BD80B485B000AF78600023FB8131
:1020E0000023BB817B681B681B6AFB817B681B68C4
:1020F0005B6ABB81FB891A04BB89134318461437FA
:10210000BD4680BC704780B584B000AF7860396050
:102110000023FB73786800F01DF80346002B02D003
:102120000123FB7311E07B681B683A68120C1A628A
:102130007B681B683A6892B25A62786800F032F89D
:102140000346002B01D00123FB73FB7B184610379D
:10215000BD4680BD80B584B000AF78600023FB60D1
:10216000FEF7E2FCF86009E0FEF7DEFC0246FB68E1
:10217000D31AB3F57A7F01D903230FE07B681B687C
:102180005B6803F02003002BEED07B681B685A6865
:102190007B681B6842F010025A6000231846103713
:1021A000BD4680BD80B584B000AF78600023FB6081
:1021B0007B681B685A687B681B6822F010025A60B3
:1021C000FEF7B2FCF86009E0FEF7AEFC0246FB68E1
:1021D000D31AB3F57A7F01D9032307E07B681B6824
:1021E0005B6803F02003002BEED000231846103765
:1021F000BD4680BD80B485B000AF0346FB710023AF
:10220000FB60FB791B09DBB21A4613469B001344A3
:102210005B00FB60FB7903F00F03DAB2FB68DBB213
:102220001344DBB218461437BD4680BC704700002B
:1022300080B485B000AF78600B46FB701346BB706E
:102240000023BB600023FB607B6803F5FA63BB607F
:10225000FB78022B2DD8FA7813465B001344DB0081
:102260009B1A2C4AA2FB03235A08BB781A44BB686A
:102270001A44BB68013B9B081A44BB68013B2649D2
:10228000A1FB03135B09D21ABB68013B2249A1FBE6
:102290000313DB0913441A1D204BA3FB0213D11AAD
:1022A00049080B4499080B46DB005B1AD31AFB6004
:1022B00029E0FA7813465B001344DB009B1A154AA9
:1022C000A2FB03235A08BB781A44BB681A44BB68B4
:1022D0009B081A44BB681049A1FB03135B09D21A7F
:1022E000BB680D49A1FB0313DB0913449A1C0B4B7C
:1022F000A3FB0213D11A49080B4499080B46DB00D3
:102300005B1AD31AFB60FB68DBB218461437BD4674
:1023100080BC7047398EE3381F85EB5125499224E4
:1023200080B582B000AF78607B68002B01D10123BB
:1023300041E07B6893F83D30DBB2002B06D17B682F
:10234000002283F83C207868FEF7DEFA7B680222E0
:1023500083F83D207B681A687B6804331946104671
:1023600000F0CAFA7B68012283F846207B680122CC
:1023700083F83E207B68012283F83F207B6801229E
:1023800083F840207B68012283F841207B6801228A
:1023900083F842207B68012283F843207B68012276
:1023A00083F844207B68012283F845207B68012262
:1023B00083F83D20002318460837BD4680BD000045
:1023C00080B485B000AF78607B6893F83D30DBB2B5
:1023D000012B01D001233AE07B68022283F83D20E3
:1023E0007B681B68DA687B681B6842F00102DA6070
:1023F0007B681B68184A93420ED07B681B68B3F158
:10240000804F09D07B681B68144A934204D07B68D4
:102410001B68134A934211D17B681B689B6803F0C9
:102420000703FB60FB68062B10D07B681B681A68EB
:102430007B681B6842F001021A6007E07B681B683A
:102440001A687B681B6842F001021A600023184674
:102450001437BD4680BC7047002C0140000400408A
:102460000008004080B582B000AF786039607B68BA
:10247000002B01D1012341E07B6893F83D30DBB2B2
:10248000002B06D17B68002283F83C20786800F09E
:1024900039F87B68022283F83D207B681A687B68E4
:1024A00004331946104600F027FA7B681B681A6847
:1024B0007B681B6822F008021A607B681B68196839
:1024C0007B681B683A680A431A607B68012283F8BC
:1024D00046207B68012283F83E207B68012283F836
:1024E0003F207B68012283F842207B68012283F829
:1024F00043207B68012283F83D20002318460837DB
:10250000BD4680BD80B483B000AF786000BF0C379B
:10251000BD4680BC704780B582B000AF78607B68F4
:102520001B681B6903F00203022B22D17B681B6826
:10253000DB6803F00203022B1BD17B681B686FF082
:1025400002021A617B6801221A777B681B689B690B
:1025500003F00303002B03D0786800F0B1F905E025
:10256000786800F0A4F9786800F0B3F97B6800227D
:102570001A777B681B681B6903F00403042B22D1C4
:102580007B681B68DB6803F00403042B1BD17B68AA
:102590001B686FF004021A617B6802221A777B685D
:1025A0001B689B6903F44073002B03D0786800F02C
:1025B00087F905E0786800F07AF9786800F089F921
:1025C0007B6800221A777B681B681B6903F008038D
:1025D000082B22D17B681B68DB6803F00803082BFB
:1025E0001BD17B681B686FF008021A617B680422AC
:1025F0001A777B681B68DB6903F00303002B03D0A9
:10260000786800F05DF905E0786800F050F97868C6
:1026100000F05FF97B6800221A777B681B681B69F2
:1026200003F01003102B22D17B681B68DB6803F0DA
:102630001003102B1BD17B681B686FF010021A610E
:102640007B6808221A777B681B68DB6903F4407398
:10265000002B03D0786800F033F905E0786800F0CB
:1026600026F9786800F035F97B6800221A777B68D4
:102670001B681B6903F00103012B0ED17B681B68EB
:10268000DB6803F00103012B07D17B681B686FF047
:1026900001021A617868FEF7C3F87B681B681B6942
:1026A00003F08003802B0ED17B681B68DB6803F08E
:1026B0008003802B07D17B681B686FF080021A6152
:1026C000786800F078FA7B681B681B6903F04003A8
:1026D000402B0ED17B681B68DB6803F04003402B66
:1026E00007D17B681B686FF040021A61786800F0C0
:1026F000F9F87B681B681B6903F02003202B0ED1BF
:102700007B681B68DB6803F02003202B07D17B6804
:102710001B686FF020021A61786800F043FA00BF6E
:102720000837BD4680BD80B584B000AF78603960A1
:102730007B6893F83C30012B01D10223B3E07B6826
:10274000012283F83C207B68022283F83D207B68CD
:102750001B689B68FB60FB6823F07703FB60FB68EA
:1027600023F47F43FB607B681B68FA689A603B68D0
:102770001B68B3F5005F3ED0B3F5005F00F28780C1
:10278000B3F5805F00F08580B3F5805F7FD8702B54
:102790001AD0702B7BD8602B50D0602B77D8502B61
:1027A0003CD0502B73D8402B58D0402B6FD8302BB7
:1027B00064D0302B6BD8202B60D0202B67D8002B17
:1027C0005CD0102B5AD062E07B6818683B6899682F
:1027D0003B685A683B68DB6800F067F97B681B68F8
:1027E0009B68FB60FB6843F07703FB607B681B68BA
:1027F000FA689A604EE07B6818683B6899683B68A5
:102800005A683B68DB6800F050F97B681B689A687F
:102810007B681B6842F480429A603BE07B681868E2
:102820003B6859683B68DB681A4600F0C7F87B686C
:102830001B685021184600F01EF92BE07B681868D1
:102840003B6859683B68DB681A4600F0E5F87B682E
:102850001B686021184600F00EF91BE07B681868C1
:102860003B6859683B68DB681A4600F0A7F87B684C
:102870001B684021184600F0FEF80BE07B681A68E0
:102880003B681B681946104600F0F5F802E000BFEF
:1028900000E000BF7B68012283F83D207B680022B6
:1028A00083F83C20002318461037BD4680BD80B415
:1028B00083B000AF786000BF0C37BD4680BC704766
:1028C00080B483B000AF786000BF0C37BD4680BCD9
:1028D000704780B483B000AF786000BF0C37BD464E
:1028E00080BC704780B483B000AF786000BF0C3705
:1028F000BD4680BC7047000080B485B000AF7860F2
:1029000039607B681B68FB607B68294A93420BD067
:102910007B68B3F1804F07D07B68264A934203D08F
:102920007B68254A934208D1FB6823F07003FB6063
:102930003B685B68FA681343FB607B681C4A934200
:102940000BD07B68B3F1804F07D07B68194A934264
:1029500003D07B68184A934208D1FB6823F4407384
:10296000FB603B68DB68FA681343FB60FB6823F09D
:1029700080023B685B691343FB607B68FA681A60FE
:102980003B689A687B68DA623B681A687B689A627F
:102990007B68074A934203D13B681A697B681A63D4
:1029A0007B6801225A6100BF1437BD4680BC704766
:1029B000002C0140000400400008004080B487B0B3
:1029C00000AFF860B9607A60FB681B6A7B61FB68E6
:1029D0001B6A23F00102FB681A62FB689B693B617A
:1029E0003B6923F0F0033B617B681B013A691343A9
:1029F0003B617B6923F00A037B617A69BB681343FF
:102A00007B61FB683A699A61FB687A691A6200BF68
:102A10001C37BD4680BC704780B487B000AFF860FB
:102A2000B9607A60FB681B6A23F01002FB681A62C7
:102A3000FB689B697B61FB681B6A3B617B6923F4D4
:102A400070437B617B681B037A6913437B613B693D
:102A500023F0A0033B61BB681B013A6913433B6150
:102A6000FB687A699A61FB683A691A6200BF1C3791
:102A7000BD4680BC704780B485B000AF78603960D7
:102A80007B689B68FB60FB6823F07003FB603A681F
:102A9000FB68134343F00703FB607B68FA689A60A6
:102AA00000BF1437BD4680BC704780B487B000AF0C
:102AB000F860B9607A603B60FB689B687B617B690A
:102AC00023F47F437B613B681A027B681A43BB682F
:102AD00013437A6913437B61FB687A699A6000BF8C
:102AE0001C37BD4680BC704780B485B000AF7860AD
:102AF00039607B6893F83C30012B01D1022346E01A
:102B00007B68012283F83C207B68022283F83D2009
:102B10007B681B685B68FB607B681B689B68BB60AD
:102B2000FB6823F07003FB603B681B68FA68134383
:102B3000FB607B681B68FA685A607B681B68164AF2
:102B400093420ED07B681B68B3F1804F09D07B683D
:102B50001B68124A934204D07B681B68104A934258
:102B60000CD1BB6823F08003BB603B685B68BA682C
:102B70001343BB607B681B68BA689A607B6801225C
:102B800083F83D207B68002283F83C200023184610
:102B90001437BD4680BC7047002C01400004004043
:102BA0000008004080B483B000AF786000BF0C37ED
:102BB000BD4680BC704780B483B000AF786000BF72
:102BC0000C37BD4680BC704780B485B000AF03466B
:102BD000FB800023FB60B7F90630842B05D0B7F9E2
:102BE0000620FB6813440333FB60FB681846143768
:102BF000BD4680BC704780B500AF00F0E7FA002307
:102C0000184680BDF0B589B004AF786039607B6844
:102C10005B69002B20D07B689B69002B1CD07B68F4
:102C20005C687B681D687B681E697B68B3F9083047
:102C30001846FFF7C9FF01467B685B697A689269AD
:102C40000292019300913B6832462946204600F0EB
:102C5000E8F80346FB601CE07B685C687B681D68E5
:102C60007B681B699EB27B68B3F908301846FFF792
:102C7000ABFF024607F10C03019300923B6832461A
:102C80002946204600F029F90346012B01D00023F4
:102C900000E0FB6818461437BD46F0BD80B584B02F
:102CA00000AF78607B68FB60FB68002B01D0FB689D
:102CB00000E00123184600F055FA002318461037AB
:102CC000BD4680BD80B483B000AF78607B6803F1FF
:102CD00008027B685A607B684FF0FF329A607B681D
:102CE00003F108027B68DA607B6803F108027B6805
:102CF0001A617B6800221A6000BF0C37BD4680BC99
:102D0000704780B483B000AF78607B6800221A619E
:102D100000BF0C37BD4680BC704780B485B000AFA3
:102D2000786039607B685B68FB603B68FA685A6072
:102D3000FB689A683B689A60FB689B683A685A60CF
:102D4000FB683A689A603B687A681A617B681B681E
:102D50005A1C7B681A6000BF1437BD4680BC7047A0
:102D600080B485B000AF786039603B681B68BB6099
:102D7000BB68B3F1FF3F03D17B681B69FB600CE0CC
:102D80007B680833FB6002E0FB685B68FB60FB6804
:102D90005B681B68BA689A42F6D2FB685A683B685F
:102DA0005A603B685B683A689A603B68FA689A6068
:102DB000FB683A685A603B687A681A617B681B68EE
:102DC0005A1C7B681A6000BF1437BD4680BC704730
:102DD00080B485B000AF78607B681B69FB607B685E
:102DE0005B687A6892689A607B689B687A685268C8
:102DF0005A60FB685B687A689A4203D17B689A687C
:102E0000FB685A607B6800221A61FB681B685A1EC7
:102E1000FB681A60FB681B6818461437BD4680BC07
:102E2000704780B58EB004AFF860B9607A603B60DF
:102E30007B6B002B0AD14FF0500383F31188BFF353
:102E40006F8FBFF34F8F3B6200BFFEE7BB6B002B62
:102E50000AD14FF0500383F31188BFF36F8FBFF394
:102E60004F8FFB6100BFFEE7B4233B613B69B42B8E
:102E70000AD04FF0500383F31188BFF36F8FBFF375
:102E80004F8FBB6100BFFEE7BB6B002B1ED07B6B7F
:102E9000002B1BD0BB6B7B627B6A7A6B1A637B6AED
:102EA000022283F8B120002303937B6A029307F187
:102EB000140301933B6B00933B687A68B968F86828
:102EC00000F050F8786A00F0E3F801E000237B613D
:102ED0007B6918462837BD4680BD80B58CB004AFED
:102EE000F860B9603B601346FB80FB889B00184686
:102EF00000F096FE78617B69002B0ED0B42000F0C4
:102F00008FFEF861FB69002B03D0FB697A691A63B5
:102F100005E0786900F048FF01E00023FB61FB69F0
:102F2000002B17D0FB69002283F8B120FA88002318
:102F30000393FB690293FB6A0193BB6A00933B68AE
:102F4000B968F86800F00EF8F86900F0A1F80123FC
:102F5000BB6102E04FF0FF33BB61BB69184620370D
:102F6000BD4680BD80B588B000AFF860B9607A60BA
:102F70003B603B6B1A6B7B6803F18043013B9B001A
:102F80001344BB61BB6923F00703BB61BB6903F05A
:102F90000703002B0AD04FF0500383F31188BFF3CF
:102FA0006F8FBFF34F8F7B6100BFFEE70023FB6194
:102FB00012E0BA68FB69134419783A6BFB69134451
:102FC00034330A461A70BA68FB6913441B78002B25
:102FD00006D0FB690133FB61FB690F2BE9D900E0E7
:102FE00000BF3B6B002283F84320BB6A062B01D94C
:102FF0000623BB623B6BBA6ADA623B6BBA6A5A64FD
:103000003B6B00229A643B6B04331846FFF779FE52
:103010003B6B18331846FFF774FE3B6B3A6B1A6133
:10302000BB6AC3F107023B6B9A613B6B3A6B5A6216
:103030003B6B0022C3F8AC203B6B002283F8B0202E
:103040003B6B4C3360220021184600F0E7FF3B6BDE
:103050000C4A1A653B6B0C4A5A653B6B0B4A9A65E6
:103060003A68F968B86900F029FC02463B6B1A60BF
:10307000FB6A002B02D0FB6A3A6B1A6000BF203754
:10308000BD4680BD4C4200086C4200082C4200083E
:1030900080B582B000AF786000F000FD2A4B1B685D
:1030A0000133294A1360294B1B68002B09D1274A99
:1030B0007B681360244B1B68012B10D100F0D2FAFF
:1030C0000DE0234B1B68002B09D1204B1B68DA6AEB
:1030D0007B68DB6A9A4202D81C4A7B6813601D4BEE
:1030E0001B6801331B4A13607B68DB6A01229A402C
:1030F000194B1B681343184A13607B68DA6A13463E
:103100009B0013449B00154A1A447B6804331946FC
:103110001046FFF702FE00F0F1FC0D4B1B68002B80
:103120000ED00A4B1B68DA6A7B68DB6A9A4207D2C8
:103130000B4B4FF080521A60BFF34F8FBFF36F8F6E
:1031400000BF0837BD4680BDF8040020F80300200A
:10315000040500201405002000050020FC030020C9
:1031600004ED00E080B584B000AF78600023FB6020
:103170007B68002B17D0134B1B68002B0AD04FF035
:10318000500383F31188BFF36F8FBFF34F8FBB6082
:1031900000BFFEE700F084F80021786800F028FB0B
:1031A00000F08CF8F860FB68002B07D1064B4FF05D
:1031B00080521A60BFF34F8FBFF36F8F00BF10377D
:1031C000BD4680BD2005002004ED00E080B58AB03A
:1031D00004AF0023BB6000237B603A46391D07F132
:1031E00008031846FCF7B4FF39687B68BA68029296
:1031F00001930023009300230A4621492148FFF749
:1032000010FE0346204A13601F4B1B68002B02D0A0
:1032100001237B6101E000237B617B69012B1BD1D2
:103220004FF0500383F31188BFF36F8FBFF34F8FBD
:103230003B6100BF154B1B684C33154A1360154B9F
:103240004FF0FF321A60144B01221A60134B002218
:103250001A6000F0B1FB0EE07B69B3F1FF3F0AD1C9
:103260004FF0500383F31188BFF36F8FBFF34F8F7D
:10327000FB6000BFFEE700BF1837BD4680BD00BF42
:103280000C420008353600081C050020F803002019
:10329000100000201805002004050020FC04002078
:1032A00080B400AF044B1B680133034A136000BFB6
:1032B000BD4680BC704700BF2005002080B584B0AB
:1032C00000AF0023FB600023BB60414B1B68002B59
:1032D0000AD14FF0500383F31188BFF36F8FBFF310
:1032E0004F8F3B6000BFFEE700F0D8FB384B1B68F8
:1032F000013B374A1360364B1B68002B61D1354BBD
:103300001B68002B5DD02EE0334BDB68DB68FB6075
:10331000FB6818331846FFF75BFDFB68043318465B
:10332000FFF756FDFB68DB6A01229A402B4B1B68B6
:1033300013432A4A1360FB68DA6A13469B0013445E
:103340009B00274A1A44FB68043319461046FFF7CE
:10335000E4FCFB68DA6A234B1B68DB6A9A4202D3FF
:10336000214B01221A601C4B1B68002BCCD1FB683F
:10337000002B01D000F018FA1C4B1B687B607B68A7
:10338000002B10D000F036F80346002B02D0164B6D
:1033900001221A607B68013B7B607B68002BF1D1C6
:1033A000124B00221A60104B1B68002B09D001231E
:1033B000BB600F4B4FF080521A60BFF34F8FBFF3CB
:1033C0006F8F00F09BFBBB6818461037BD4680BD71
:1033D00020050020F8040020B8040020000500208B
:1033E000FC030020F80300200C0500200805002045
:1033F00004ED00E080B586B000AF00237B61514B47
:103400001B68002B40F08D804F4B1B6801333B61E4
:103410004D4A3B6913603B69002B20D14B4B1B6825
:103420001B68002B0AD04FF0500383F31188BFF3C1
:103430006F8FBFF34F8F3B6000BFFEE7434B1B68AE
:10344000FB60434B1B68414A1360414AFB681360B1
:10345000404B1B6801333F4A136000F0A5F93E4B17
:103460001B683A699A424DD3384B1B681B68002B86
:1034700001D1012300E00023002B04D0364B4FF094
:10348000FF321A603EE0314B1B68DB68DB68BB60D3
:10349000BB685B687B603A697B689A4203D22E4ABC
:1034A0007B6813602EE0BB6804331846FFF790FC7E
:1034B000BB689B6A002B04D0BB6818331846FFF723
:1034C00087FCBB68DB6A01229A40244B1B681343CC
:1034D000224A1360BB68DA6A13469B0013449B00C0
:1034E0001F4A1A44BB68043319461046FFF715FCFF
:1034F000BB68DA6A1B4B1B68DB6A9A42B4D30123B0
:103500007B61B1E7174B1B68DA6A154913469B00CC
:1035100013449B000B441B68012B07D901237B61DB
:1035200004E0114B1B6801330F4A13600F4B1B68FB
:10353000002B01D001237B617B6918461837BD46FB
:1035400080BD00BF20050020FC040020B004002046
:10355000B4040020100500201805002000050020FC
:10356000FC030020F8030020080500200C050020C3
:1035700080B487B000AF294B1B68002B03D0284BC9
:1035800001221A6044E0264B00221A60254B1B687A
:10359000FB60FB68B3FA83F3FB72FB7AC3F11F0392
:1035A0007B6121497A6913469B0013449B000B44BD
:1035B0001B68002B0AD14FF0500383F31188BFF32F
:1035C0006F8FBFF34F8F7B6000BFFEE77A691346B2
:1035D0009B0013449B00144A13443B613B695B68A6
:1035E0005A683B695A603B695A683B6908339A429A
:1035F00004D13B695B685A683B695A603B695B6808
:10360000DB680A4A1360094B1B684C33084A136095
:1036100000BF1C37BD4680BC704700BF200500209E
:103620000C05002000050020FC030020F80300200A
:103630001000002080B582B000AF786000F052F832
:10364000064B1B68012BF9D9054B4FF080521A60CD
:10365000BFF34F8FBFF36F8FF0E700BFFC03002075
:1036600004ED00E080B582B000AF00237B600CE089
:103670007A6813469B0013449B00124A1344184671
:10368000FFF720FB7B6801337B607B68062BEFD95B
:103690000D48FFF717FB0D48FFF714FB0C48FFF729
:1036A00011FB0C48FFF70EFB0B48FFF70BFB0B4B16
:1036B000054A1A600A4B054A1A6000BF0837BD4622
:1036C00080BD00BFFC030020880400209C04002073
:1036D000B8040020CC040020E4040020B004002042
:1036E000B404002080B582B000AF19E000F0D6F934
:1036F000104BDB68DB687B607B6804331846FFF7A0
:1037000067FB0D4B1B68013B0B4A13600B4B1B689F
:10371000013B0A4A136000F0F1F9786800F010F8F4
:10372000064B1B68002BE1D100BF00BF0837BD4628
:1037300080BD00BFCC040020F8040020E00400207D
:1037400080B584B000AF78607B684C33184600F0D9
:103750007BFC7B6893F8B130002B08D17B681B6B36
:10376000184600F021FB786800F01EFB18E07B682B
:1037700093F8B130012B03D1786800F015FB0FE00E
:103780007B6893F8B130022B0AD04FF0500383F3DB
:103790001188BFF36F8FBFF34F8FFB6000BFFEE751
:1037A00000BF1037BD4680BD80B483B000AF0E4B64
:1037B0001B681B68002B01D1012300E00023002BB4
:1037C00004D00A4B4FF0FF321A6008E0064B1B682A
:1037D000DB68DB687B607B685B68044A136000BF62
:1037E0000C37BD4680BC7047B0040020180500208F
:1037F00080B584B000AF78603960294B1B68FB60EE
:10380000284B1B6804331846FFF7E2FA0346002BE7
:103810000BD1244B1B68DB6A012202FA03F3DA4363
:10382000214B1B681340204A13607B68B3F1FF3FB4
:103830000AD13B68002B07D01A4B1B68043319468A
:103840001A48FFF76AFA26E0FA687B681344BB60FF
:10385000144B1B68BA685A60BA68FB689A4209D26E
:10386000134B1A680F4B1B68043319461046FFF7B9
:1038700077FA10E00F4B1A680A4B1B68043319469D
:103880001046FFF76DFA0C4B1B68BA689A4202D2D9
:10389000094ABB68136000BF1037BD4680BD00BF3A
:1038A000FC040020F803002000050020E4040020B0
:1038B000B4040020B00400201805002080B485B0B6
:1038C00000AFF860B9607A60FB68043BFB60FB689E
:1038D0004FF080721A60FB68043BFB60BB6823F00A
:1038E0000102FB681A60FB68043BFB60084AFB6846
:1038F0001A60FB68143BFB607A68FB681A60FB681F
:10390000203BFB60FB6818461437BD4680BC7047FF
:103910001539000880B485B000AF00237B60124BDE
:103920001B68B3F1FF3F0AD04FF0500383F31188B7
:10393000BFF36F8FBFF34F8FFB6000BFFEE74FF009
:10394000500383F31188BFF36F8FBFF34F8FBB60BA
:1039500000BF00BF7B68002BFCD000BF00BF143746
:10396000BD4680BC704700BF0C0000200000000076
:10397000074B19680868B0E8F00F80F30988BFF3B7
:103980006F8F4FF0000080F311884EF00D0E7047DE
:10399000F803002000BF00BF06480068006880F3FD
:1039A000088862B661B6BFF34F8FBFF36F8F00DF39
:1039B00000BF00BF08ED00E080B584B000AF324B1F
:1039C000FB60FB681B78DBB27B60FB68FF221A7030
:1039D000FB681B78DBB2FB70FB78DBB203F05003B3
:1039E000DAB22A4B1A702A4B07221A6009E0284BD8
:1039F0001B68013B264A1360FB78DBB25B00DBB23D
:103A0000FB70FB78DBB203F08003802BEFD0204B00
:103A10001B68C3F10703042B0AD04FF0500383F354
:103A20001188BFF36F8FBFF34F8FBB6000BFFEE7FE
:103A3000174B1B681B02164A1360154B1B6803F4D7
:103A4000E063134A13607B68DAB2FB681A70114BAB
:103A50001B68104A43F4700313600E4B1B680D4A39
:103A600043F07043136000F0B9F80B4B00221A606A
:103A7000FFF792FFFFF77CFDFFF74CFF002318468E
:103A80001037BD4680BD00BF00E400E024050020E3
:103A90002805002020ED00E00C00002080B483B059
:103AA00000AF4FF0500383F31188BFF36F8FBFF364
:103AB0004F8F7B6000BF0F4B1B6801330D4A1360B3
:103AC0000C4B1B68012B0FD10B4B1B68DBB2002B7F
:103AD0000AD04FF0500383F31188BFF36F8FBFF309
:103AE0004F8F3B6000BFFEE700BF0C37BD4680BC78
:103AF000704700BF0C00002004ED00E080B483B0EC
:103B000000AF114B1B68002B0AD14FF0500383F319
:103B10001188BFF36F8FBFF34F8F7B6000BFFEE74D
:103B2000094B1B68013B084A1360074B1B68002BBD
:103B300005D100233B603B6883F3118800BF00BFC1
:103B40000C37BD4680BC70470C0000200000000010
:103B5000EFF30980BFF36F8F0D4B1A6820E9F00F68
:103B600010602DE908404FF0500080F31188FFF7F6
:103B7000FFFC4FF0000080F31188BDE80840196891
:103B80000868B0E8F00F80F30988BFF36F8F7047C3
:103B9000F803002000BF00BF80B582B000AF4FF037
:103BA000500383F31188BFF36F8FBFF34F8F7B6098
:103BB00000BFFFF71FFC0346002B03D0064B4FF05E
:103BC00080521A6000233B603B6883F3118800BF7A
:103BD00000BF0837BD4680BD04ED00E080B400AFF3
:103BE0000A4B00221A600A4B00221A60094B1B681C
:103BF000094AA2FB03239B09084A013B1360034BBC
:103C000007221A6000BFBD4680BC704710E000E08C
:103C100018E000E000000020D34D621014E000E046
:103C200080B58AB000AF78600023FB61FFF738FBF6
:103C3000584B1B68002B01D100F010F9564B1A6845
:103C40007B681340002B40F08E807B68002B1DD0DA
:103C500008227B6813447B607B6803F00703002B1A
:103C600014D07B6823F0070308337B607B6803F084
:103C70000703002B0AD04FF0500383F31188BFF3E2
:103C80006F8FBFF34F8F7B6100BFFEE77B68002B18
:103C900069D0424B1B687A689A4264D8404B3B62B9
:103CA0003F4B1B687B6204E07B6A3B627B6A1B685C
:103CB0007B627B6A5B687A689A4203D97B6A1B687D
:103CC000002BF1D1334B1B687A6A9A424BD03B6A86
:103CD0001B6808221344FB617B6A1A683B6A1A60FE
:103CE0007B6A5A687B68D21A08235B009A421FD904
:103CF0007A6A7B681344BB61BB6903F00703002B3E
:103D00000AD04FF0500383F31188BFF36F8FBFF3D6
:103D10004F8F3B6100BFFEE77B6A5A687B68D21A0F
:103D2000BB695A607B6A7A685A60B86900F0F8F833
:103D30001A4B1A687B6A5B68D31A184A1360174BD0
:103D40001A68184B1B689A4203D2144B1B68154A19
:103D500013607B6A5A68104B1B681A437B6A5A606F
:103D60007B6A00221A60FFF7A9FAFB6903F00703D8
:103D7000002B0AD04FF0500383F31188BFF36F8FED
:103D8000BFF34F8FFB6000BFFEE7FB691846283783
:103D9000BD4680BD341100204011002038110020A4
:103DA0002C1100203C11002080B586B000AF786057
:103DB0007B687B617B68002B48D008235B427A6973
:103DC00013447B617B693B613B695A68214B1B68EB
:103DD0001340002B0AD14FF0500383F31188BFF337
:103DE0006F8FBFF34F8FFB6000BFFEE73B691B681F
:103DF000002B0AD04FF0500383F31188BFF36F8F6D
:103E0000BFF34F8FBB6000BFFEE73B695A68114BA1
:103E10001B681340002B19D03B691B68002B15D180
:103E20003B695A680B4B1B68DB431A403B695A607D
:103E3000FFF736FA3B695A68074B1B681344064A7A
:103E40001360386900F06CF8FFF738FA00BF1837D4
:103E5000BD4680BD401100203811002080B485B0DF
:103E600000AF4FF44063BB60274BFB60FB6803F07F
:103E70000703002B0CD0FB680733FB60FB6823F0C3
:103E80000703FB60BA68FB68D31A1F4A1344BB6080
:103E9000FB687B601D4A7B6813601C4B00225A60E4
:103EA0007B68BA681344FB600822FB689B1AFB60BE
:103EB000FB6823F00703FB60FB68154A1360144B93
:103EC0001B6800225A60124B1B6800221A607B6834
:103ED0003B603B68FA68D21A3B685A600C4B1A6820
:103EE0003B681A603B685B680A4A13603B685B6822
:103EF000094A1360094B4FF000421A6000BF1437A3
:103F0000BD4680BC704700BF2C0500202C1100204E
:103F1000341100203C1100203811002040110020F5
:103F200080B485B000AF7860274BFB6002E0FB688F
:103F30001B68FB60FB681B687A689A42F7D8FB68CD
:103F4000BB60FB685B68BA6813447A689A4208D120
:103F5000FB685A687B685B681A44FB685A60FB68B8
:103F60007B607B68BB607B685B68BA681A44FB68EF
:103F70001B689A4218D1FB681A68144B1B689A4256
:103F80000DD07B685A68FB681B685B681A447B68C5
:103F90005A60FB681B681A687B681A6008E00B4B64
:103FA0001A687B681A6003E0FB681A687B681A600D
:103FB000FA687B689A4202D0FB687A681A6000BF90
:103FC0001437BD4680BC70472C11002034110020EE
:103FD00070B500260C4D0D4C641BA410A64209D1EF
:103FE00000F0E2F800260A4D0A4C641BA410A64219
:103FF00005D170BD55F8043B98470136EEE755F8FA
:10400000043B98470136F2E78C4200088C420008D6
:104010008C420008904200087047704703460244F3
:10402000934200D1704703F8011BF9E738B50C46FD
:104030000968054609B1FFF7F9FF21462846BDE8A2
:10404000384000F069B800002C4B70B51B6804467E
:10405000834251D0436A43B1DB68002B4AD1636A83
:10406000196811B1204600F057F8616911B1204676
:1040700000F052F8616A11B1204600F04DF8A16BD2
:1040800011B1204600F048F8E16B11B1204600F074
:1040900043F8216C11B1204600F03EF8E16D11B1FA
:1040A000204600F039F8A16D11B1204600F034F837
:1040B000616B11B1204600F02FF8A369E3B12046EF
:1040C000A36A9847A16CB9B12046BDE87040FFF7DC
:1040D000ADBF495941B90435636A802DD968F8D11B
:1040E000204600F019F8BAE70E68204600F014F8F0
:1040F0003146EFE70025EFE770BD00BF100000205C
:104100000148FFF789BF00BF441100200148FFF7B5
:1041100084BF00BF4411002038B50546002940D0B7
:1041200051F8043C0C1F002BB8BFE418FFF7E8FF60
:104130001C4A136833B9636014602846BDE83840F0
:10414000FFF7E4BFA34208D9206821188B4201BFC2
:1041500019685B6809182160EDE71A465B680BB1C6
:10416000A342FAD911685018A0420BD1206801442B
:10417000501883421160E0D118685B6801441160F7
:104180005360DAE702D90C232B60D6E720682118A8
:104190008B4201BF19685B68091821606360546035
:1041A000CBE738BD48110020F8B500BFF8BC08BC0B
:1041B0009E467047F8B500BFF8BC08BC9E467047E5
:1041C00064656661756C745461736B004C454400A2
:1041D000C0410008110800080000000000000000B5
:1041E0008000000000000000000000000203040541
:1041F000060708090A0B0C0D0E0F10100203040528
:10420000060708090A0B0C0D0E0F101049444C4507
:104210000000000000000000000000000102030494
:104220000607080900000000010203040000000066
:10423000000000000000000000000000000000007E
:10424000000000000000000000000000000000006E
:10425000000000000000000000000000000000005E
:10426000000000000000000000000000000000004E
:10427000000000000000000000000000000000003E
:0C42800000000000000000000000000032
:04428C0035010008F0
:044290001101000810
:104294000024F4001000000001000000AAAAAAAA49
:1042A40014000020000000004C4200086C4200088A
:1042B4002C42000800000000000000000000000084
:1042C40000000000000000000000000000000000EA
:1042D40000000000000000000000000000000000DA
:1042E40000000000000000000000000000000000CA
:1042F40000000000000000000000000000000000BA
:0443040000000000B5
:0400000508000A8D58
:00000001FF
